:040000006F206020ED
:1000040000000000000000006216000064160000FA
:1000140000000000042200000000000000000000B6
:100024000422000004220000000000000000000080
:100034000422000000000000042200000000000070
:100044000422000004220000042200000422000014
:100054000422000004220000042200000422000004
:1000640004220000042200000422000004220000F4
:1000740004220000042200000422000004220000E4
:1000840004220000042200000422000004220000D4
:1000940004220000042200000422000004220000C4
:1000A40004220000042200000422000004220000B4
:1000B40004220000042200000422000004220000A4
:1000C4000422000004220000042200000422000094
:1000D4000422000004220000042200000422000084
:1000E4000422000004220000042200000422000074
:1000F4000422000004220000042200000422000064
:100104000000000004220000042200000422000079
:100114000422000004220000042200000422000043
:100124000422000004220000042200000422000033
:100134000422000004220000042200000422000023
:100144000422000004220000042200000422000013
:100154000422000004220000042200000422000003
:1001640004220000042200000422000004220000F3
:1001740004220000042200000422000004220000E3
:1001840004220000042200000422000004220000D3
:1001940004220000042200000422000004220000C3
:1001A400000000000000000000000000000000004B
:0C01B4000000000000000000000000003F
:1001C000397101436EC619A0397141536AC866CAB4
:1001D00062CC5ECE19A0397101535AD056D252D496
:1001E0004ED64AD826DA22DC06DE3301614082820E
:1001F00041114AC026C222C406C68282B24D4101C4
:10020000024D924C224CB24B4101024B924A224A7F
:10021000B2494101024992442244B24041018280E4
:100220003D432A876373C3029377F700BDEFADE5C3
:10023000937606FF3D8ABA960CC34CC30CC74CC7D5
:100240004107E36BD7FE11E28280B306C3408A0602
:100250009702000096966780A6002307B700A306C2
:10026000B7002306B700A305B7002305B700A30412
:10027000B7002304B700A303B7002303B700A3020A
:10028000B7002302B700A301B7002301B700A30002
:10029000B7002300B700828093F5F50F9396850091
:1002A000D58D93960501D58D61B79396270097025A
:1002B000000096968682E78086FA9680C1171D8F89
:1002C0003E96E374C3F8A5B7EFF29FF2AE86896558
:1002D0001306003493850540EF10607625BFEFF2DA
:1002E0009FEF4111AA842E899306E1000546A1657E
:1002F0002685EF10C07429E93C87A18BF5D701440E
:100300007D5A954913060003A1652685EF10A07D4F
:10031000630C4503CA861306003493050040268506
:10032000EF10E07115E19306E1000546A165268511
:10033000EF10E07011E93C8705041374F40FA18BF2
:1003400091C7E31134FD61554101C1B59547615530
:10035000E30CF4FEA16574000546B5052685EF1093
:10036000006E3C862310F9683C87858B2311F96861
:1003700061FD3E85D1BFEFF2BFE74111A1642E843C
:100380009306E10005469385D4002A89EF10206B7F
:1003900009ED30871E04137404381376F6C7418EB6
:1003A0009385D4004A85EF1000744101A5B5011171
:1003B00022CC0354456552C62A8A228542044184D0
:1003C00026CA06CE4AC856C45AC25EC0AE84EF6082
:1003D000C03763580400B7A7000083A507B9EF50E2
:1003E000906C2A8903C5440203540A68EF500049FF
:1003F000B7A7000003AA87B983AAC7B92A86AE8621
:100400005285D6852984EF20A0590D882A8B228514
:10041000AE8BEF50803F2A86AE865285D685EF2080
:1004200020582A86AE865A85DE85EF40C002EF60EE
:100430006049CA85EF50F03D2A8403952400EF609F
:100440006024AA852285EF5010662A840395040053
:10045000EF604023AA852285EF50607FB7A7000098
:1004600083A547B9EF500048F2406244D244424964
:10047000324AA24A124B824B05618280EFF2BFD50D
:10048000AA892E842D3783D409642A8A2685C2043A
:10049000C184EF60802B63D80400B7A7000083A558
:1004A00007B9EF50506083D409602A892685C204B9
:1004B000EF60A029C184AA8963D90400B7A700000E
:1004C00083A507B9EF50305EAA890C484A85EF50E2
:1004D0005034CE85EF500041AA854A85EF502077F1
:1004E000B7A7000083A547B8EF50B032B7A7000008
:1004F00083A547B9AA845285EF50F05A4C40EF507B
:100500005031B7A7000083A587B8EF50A03DAA855A
:100510002685EF50C073AA844A24EF60A016AA85EE
:100520002685EF5050580C44EF506072B7A700007A
:1005300083A5C7B8EF50003BC9B98357650693063A
:10054000F00713970701A183418763F6F6009387AD
:1005500007F0C207C183136707F01607F9763697CD
:1005600096079EA1BAA18280EFF2FFC68359450685
:100570002A892E8413D5A900EF60C010B7A7000008
:1005800083A507B5AA84EF50B017635AA000B7A798
:10059000000083A547B52685EF50F050AA84B7A781
:1005A000000083A587B52685EF50B0262A8A13F56B
:1005B000F93FEF60200DB7A7000083A5C7B5AA8457
:1005C000EF501014635AA000B7A7000083A507B628
:1005D0002685EF50504DAA8403550902FD778359B3
:1005E00029067D8DEF506022B7A7000003A687B6CD
:1005F00083A6C7B6EF40405EB7A7000003A607B7C3
:1006000083A647B7EF302072EF60C02BB7A700007A
:1006100083A547B62A89232244012685EF50701FFF
:1006200008C42316340123282401C5B6EFF25FBCA9
:1006300003458507AE84EF60E004B7A7000083A5FB
:1006400087B72A84EF50D00B635AA000B7A70000E9
:1006500083A5C7B72285EF5010452A84B7A70000AD
:1006600083A507B82285EF50D01A88CC65B6EFF283
:100670003FB803558507AE842181EF60A000B7A77E
:10068000000083A587B72A84EF509007635AA00023
:10069000B7A7000083A5C7B72285EF50D0402A84B2
:1006A000B7A7000083A547B42285EF50901688D4E1
:1006B00095B6EFF25FB2C167938787FD0357E507F1
:1006C000DCDD8357E5073187937637009187BD8B53
:1006D0002390F5040357E507AA840549218713767B
:1006E000F70029473387E6022E84B307F702330762
:1006F000C7022390F504BA972391F5048357E507C1
:100700008359A507BD8BA10713F5F90F3319F9001C
:10071000EF50507748D413D58900EF50B07683D48A
:10072000C40708D813F5F40FEF50D07548D813D587
:100730008400EF503075B7A7000003AA87B7B7A7AA
:10074000000083AAC7B708DC9304C4021304C403DF
:1007500083A90400D2854E85EF50807A6357A000AC
:10076000D6854E85EF50303488C04A85EF50907161
:10077000AA8588409104EF50804D23AEA4FEE399F2
:1007800084FC61B4EFF2DFA3835705046D712A8402
:1007900013D747403D8B13F5F7003AC813D787406E
:1007A000B183F9073ECC835724043D8B930A0103A0
:1007B0003ACA3ECEAE8413064404A2891307040548
:1007C000D68716220906C10793F5F60023A8B7FEBF
:1007D00093D54640BD8923AAB7FE93D58640BD89EF
:1007E000B18223ACB7FE23AED7FEE31CC7FC138651
:1007F0000A06D6879D45944363D4D500C11694C399
:100800009107E31AF6FE1C0993080406BE863E8D86
:1008100012230907C1069375F60023A8B6FE935567
:100820004640BD8923AAB6FE93558640BD893182D4
:1008300023ACB6FE23AEC6FEE39CE8FC9386070815
:100840001D4698436354E600411798C39107E39A05
:10085000F6FE85473395A700EF50D06293070460FA
:100860003ED4B7A7000003AC07B5B7A7000083AD1F
:1008700047B5B7A7000003AB87B983ABC7B92AC692
:10088000930C000826844E8A014903550A081185F5
:100890001375F503EF50105FE2852AD0EF504066E4
:1008A00082576345A0087CC0524783A70A00090A03
:1008B0001104B397E7007247BA9733072D01084335
:1008C000424711093315E5003E95EF50B05B2C40CF
:1008D0002AD03245EF50E0738257AA853E85EF500B
:1008E000600028C02AD66245EF4050792A86AE863D
:1008F0005A85DE85EF20C00AB2572AD02ED23E8517
:10090000EF50907102569256EF30F034EF50907BDA
:1009100028C0E31C99F7A25793890904910A93848C
:100920000408E39137F751616FF05F8DEE853E85E6
:10093000EF50701768C08DBFEFF29F8B1A311571A1
:10094000035E250213534740937EF7000A882187F0
:100950001373F3003D8B9308450293070503C2868A
:1009600003D608008908C106137FF60023A8E6FF16
:10097000135F4640137FFF0023AAE6FF135F864004
:10098000137FFF00318223ACE6FF23AEC6FEE3995E
:1009900017FD93080806C2861D4F90426354CF008E
:1009A000411690C29106E39AD8FE130F05049410E5
:1009B00092238907C1069378F60023A816FF93585F
:1009C000464093F8F80023AA16FF9358864093F800
:1009D000F800318223AC16FF23AEC6FEE31AFFFCFB
:1009E0009C109302010E1D4694436354D600C11619
:1009F00094C39107E39AF2FE8567938747C48148C1
:100A0000BE957D449304006083270800B30F150151
:100A100033861501B397E700F297C207C183130F1E
:100A2000010683D60F08A982636BD40216A283261F
:100A30000F0083130600110FB3966600BE96B393A2
:100A4000D3019E9616A2890F0906E39CE2FD9388C6
:100A500008041108E39A98FA2D616FF0AFFB9386B2
:100A600006FCE9B7EFF2CFF58357C50601112A8AD4
:100A700013D78700230FF1008357E50603550507B9
:100A8000230EE100A30FF10013D7870093594540CF
:100A900085473D893395A7002E89A30EE100EF50CD
:100AA000703E37A70000032C87B437A70000032D42
:100AB000C7B437A700008567032B87B9832BC7B955
:100AC00093F9F90093874724A1092AC23E99930A12
:100AD0000002930C0032938D0AFE4A8493D44D0099
:100AE00013F71D008988BA9413971D005297035578
:100AF000070805851D89EF50F038E2852AC4EF50BC
:100B0000204022476349A00618C00C401245850DBD
:100B10001104EF5000501C10BE942AC40385C4FF7A
:100B2000EF5050362247AA853A85EF40B05B232E1E
:100B3000A4FEAA844E85EF4070542A86AE865A855C
:100B4000DE85EF10F0652AC426852EC6EF50D04C06
:100B50002246B246EF303010EF50D056232EA4FE7E
:100B6000E39EBAF7938A0A0213090908E3959AF7F4
:100B700005616FF0AFE8EA853A85EF50C07208C0B2
:100B800069B7EFF26FE4835785069D46011113D7CD
:100B9000C70063EDE60C62076187230EE10013D7FF
:100BA0008740620761879376F700218B11C3C116D6
:100BB00013D7474062076187230FD1009376F70070
:100BC000218B11C3C116E207E18713F7F700A30ECB
:100BD000D100A18B91C3411783540507B7A700002B
:100BE000096403A987B983A9C7B9A184130444E49C
:100BF000A30FE100BD882E94014B130C0002930C4F
:100C00000030A28A014A33076A0193574700898B53
:100C1000058BBA971810BA970385C7FF050A910A82
:100C2000EF50502623AEAAFEAA8B2685EF40104532
:100C30002A86AE864A85CE85EF1090562AC45E85F8
:100C40002EC6EF50703D2246B246EF30D000EF5036
:100C5000704723AEAAFEE3188AFB130B0B021304A2
:100C60000408E3109BFB05616FF08FD9411725B78E
:100C7000EFF28FD583574507035A050441111397A7
:100C800007014187135ACA009379F73F137707206A
:100C90002A89AE846D0A11C7938909C0C20993D904
:100CA0000941A9837D476376F700938707FCC20754
:100CB000C18303552907CE97139407011375F53F98
:100CC000EF50501CB7A7000083A5C7B54184AA8A7E
:100CD000EF500023635AA000B7A7000083A507B612
:100CE0005685EF50405CAA8A5285EF40303937AACA
:100CF00000002A86AE8603258AB98325CAB9EF107B
:100D0000304A2AC456852EC6EF5010312246B246CC
:100D1000EF306074EF50103B2A8B0355290729816F
:100D2000EF505016B7A7000083A507B5AA8AEF5069
:100D3000201D635AA000B7A7000083A547B55685BC
:100D4000EF506056AA8AB7A7000083A507B456855E
:100D5000B7AA0000EF50E02BB7A7000083A587B823
:100D6000EF405038DA85EF50C02AAA8B0345690757
:100D7000EF50501183A58AB72A8CEF506018635A40
:100D8000A000B7A7000083A5C7B76285EF50A051A8
:100D90002A8C0355090711853D892105EF40102E46
:100DA0002A86AE8603258AB98325CAB9EF10503F3B
:100DB0002AC462852EC6EF5030262246B246EF3056
:100DC0008069EF50303088D0035569072181EF509A
:100DD000700B83A58AB72A8CEF508012635AA0004B
:100DE000B7A7000083A5C7B76285EF50C04B2A8C18
:100DF0000355090721853D89EF4050282A86AE8694
:100E000003258AB98325CAB9EF1090392AC46285AF
:100E10002EC6EF5070202246B246EF30C063EF502E
:100E2000702A8D65C8CCA69523A265A523A475A5B7
:100E3000239635A5239785A441016FF06FBCEFF28F
:100E40008FB95E298359A506AE84918793C7F7FFB2
:100E500013F5F90313F40708EF50D002B7A7000009
:100E600083A507B52A89EF50A009635AA000B7A748
:100E7000000083A547B54A85EF50E0422A89B7A70D
:100E8000000083A507B34A8537A90000EF5060181A
:100E9000AA8A13D569407D89EF50C07E832549B366
:100EA0002A8AEF50E005635AA000B7A7000083A587
:100EB00087B35285EF50203F2A8AB7A7000083A549
:100EC000C7B35285EF50E0142A8A13D5B900EF500A
:100ED000607B832549B3AA89EF508002635AA00042
:100EE000B7A7000083A587B34E85EF50C03BAA8902
:100EF000B7A70000A382840283A547B60D64269499
:100F0000232854A5232A44A54E85EF508010232C76
:100F1000A4A46FF08FAFB305B540138715028947BE
:100F200063FCE70013871500695563F8E700851532
:100F300063F5B7000145828069558280EFF2CFA842
:100F40008D67AE977D57239EE7A42393E7A6239F43
:100F5000E7A42394E7A62390E7A62395E7A6239189
:100F6000E7A62396E7A62392E7A62397E7A60567B9
:100F700013050508814401448147930807539306EC
:100F800087521308003015461A2115E73307D4009D
:100F9000060705042E9742045EA741808507C20715
:100FA000C183638507036305C40E0905E39EC4FC82
:100FB00071556FF0EFA4058B75D3338714010607C5
:100FC00085042E97C2047EA3C180C9BF954775557D
:100FD000E301F4FE7155E38EF4FCB307940011476E
:100FE0006D55E348F7FC8D679387C7A5338AF500F5
:100FF0002E89D28B814ABE8993970A01C18363E40B
:1010000087028D67938767A6B30AF900568C014B58
:10101000BE8993170B01C18363E8970201496316E8
:101020008906014579B7850A568B63448B00890B85
:10103000E1B793171B00CE97CA978E2303D50B00F9
:10104000D93D25F9050BD5B7050BDA8B63C49B0099
:10105000090CC1B793971B00CE97CA978E230355EF
:101060000C00553D39F5850BD5B783550B0003555D
:101070000A00090B4D3515FD8509E3C899FE0509E0
:10108000420913590901090A59BF568B8149F5B71D
:10109000755505B7EFF24F932A84AE84AA890149AA
:1010A000138CF5FF634689038947B3C7F40285882B
:1010B0008A073E94084099E88325C4FFEF409002D8
:1010C000B7A7000083A5C7B3EF40B0746FF04F938C
:1010D00005094A8A63149A009109E9B7931A2A000C
:1010E000A29A83AB0A0003AB09005E85DA85EF4064
:1010F00090696356050023A0790123A06A01050ABF
:10110000D1BF0D679307C7A5130767A6AE97BA951A
:10111000BA27630AA7009A236307A7008907E39900
:10112000B7FE0145828005458280EFF26F89C16775
:101130000111FD173EC4B7A7000003A4C7B32AC01E
:101140002E8932C2368A8144228CA28C228DA28DB5
:10115000024793971400BA979623A2476395F60027
:1011600005616FF0AF899397260013D6560013766A
:10117000F60FB30AF9009247131756003387E6407B
:1011800085451377F70F6397B70A15EA09EB03272D
:10119000490823A0EA00850493F4F40F55BFFD46E7
:1011A0006315D7000327890FEDB783A54A0803A568
:1011B000CA07EF402073EE85EF40B0658DA8DD468D
:1011C0006318D60211E705674A97032747B0D1B7DE
:1011D000FD466317D70005674A97032787B755BFB2
:1011E00083A54AF803A5CAF7EF40C06FEA85E9B7BF
:1011F00009EB83A54A0803A54AF8EF40A06EE685EF
:1012000065BFFD4603A5CAF783A5CA076316D700C5
:10121000EF40406DE2854DB703A74AF82AC82ECCAF
:101220003ACA03A74A08914508083ACEA53523A033
:10123000AA0095B701E703A74A00A1BF83A9CAFF87
:101240006305B70079466319C70083A54A004E8538
:10125000EF404069A2858DB77D466315C70023A086
:101260003A0115BF1385E6FF4205D285418136C696
:10127000493D03AB4A0029EDB246D28513852600CD
:1012800042054181BD3D29E583A58A005A85EF507D
:10129000800183A58AFFAA8B2AC84E85EF50A00043
:1012A0002A862ACA370500801345F5FFB375C500A5
:1012B0003375750132C6EF40B0446358A000324622
:1012C000CE853285EF4000629DB7DA855E85DDBF51
:1012D000CE855A85EF400061B7A7000083A5C7B34C
:1012E000E1BD5E2993F7070499E3014582806555C6
:1012F0008280EFE2FFEF2A84AE84E5372DE9A685F0
:101300002285EFF08FA3A6852285EFF0EFA5835706
:101310000406A6852285DEA8EFF04FB183570407A7
:10132000A6852285B1878D8B2382F402EFF02FB43E
:10133000A6852285EFF0EFB7A6852285EFF08FC452
:10134000A6852285EFF04FDFA6852285EFF08FF18D
:10135000A6852285EFF0FF82A6852285EFF05F91BA
:10136000A6852285EFF0BFADA6852285C13E6FE040
:101370007FEAEFE2FFE74111DD2E13052003EF10B6
:101380008051914513053003EFE0FFFEA165930600
:10139000E1000546B50513053003EF00406A93856B
:1013A000818513053003EFE03FF213898185835572
:1013B0000900AA8437A50000130585BCEF60A00CC6
:1013C0002C8737A50000130545BDEF60C00B81C811
:1013D00037A50000A685130505BEEF60C00AB775E6
:1013E00000209385C5E4138581852137AA8519C519
:1013F00037A50000130505C1EF60E00841016FE06B
:101400007FE1EFE27FDCB7A7000003AAC7B4411178
:101410000949B764002037740020B7AB0000528B35
:10142000B70A00209385847C13053003EFE03FEB7F
:101430002AC69305C4E41385847CEFE05FF7AA8C89
:101440009305C4E41385847CEFF04F839389018472
:1014500023A0A900D285EF401065EF50E03B2AC0E1
:1014600066852EC2EF50403B9247324802472A869B
:10147000AE8613854BBAEF60000103A50900DA853B
:10148000B7690020EF40306203A60A3FAA8613879F
:1014900089BC9305C4E41385847CEF80B06C37A5C8
:1014A00000209306C4E40146938589BC1305858A10
:1014B000AD3985476315F90041016FE07FD40549D7
:1014C00095B7EFE2FFCFB7A70000056937640020AA
:1014D00003AB07BA930409C0130484BC938A81ED5B
:1014E0004111A294130989D48149138A81ED0840DE
:1014F000DA85EF401032EF5080134205418123908E
:10150000AA00AA8763733501CE879399070193D9FF
:101510000901AA876373A900CA87139907011104F7
:1015200013590901890AE39484FC8567B389294129
:101530009387279EB3C93703371B0020B70C0020C1
:10154000130C8B0C8144130B8B0C9306000A1308AD
:10155000400C130700409308600C2943938C0C0047
:10156000C20993D9090133840403814AB38DD4029B
:1015700042044180137DC43FB30BA7412980C20BB5
:10158000160493DB0B017D04C20D93DD0D01139551
:101590000A014181B3071503B385AD00C205C181BE
:1015A000DA9542C636C446C23AC0C207C18393FE2A
:1015B000E73FA983B307F440C207C183138F070233
:1015C000060F529F835F0F00139F1700529F330631
:1015D000D741035F0F0042064182B38FCF0233062B
:1015E000CF02138FF7FF060FFD07529F8607035F99
:1015F0000F00D2979E23330FDF03B387D703B38F38
:10160000AF0333067603330F7F037E96B387A703BA
:101610007A96B297D187B3872741B3873703B3C789
:1016200067029CA1B3075C019C23A685850A8607F7
:10163000E6979223EF00D013130E000A29430247C6
:101640009248A2463248E394CAF58504C204C18098
:1016500093078007130C0C0AE397F4F041016FE045
:10166000FFB901A0EF10A032AA8537A5000013052D
:1016700045C4EF505061EF10E031AA8537A5000056
:10168000130545C5EF503060EF102031AA8537A50E
:101690000000130545C6EF50105F01A0411123174C
:1016A0000100814763C4A700410182803887850714
:1016B000C2074207418393061700C206C18274879E
:1016C0007887C183C5B7EFE2BFB2B7140140138575
:1016D00004C005468545EF0070563704002013040A
:1016E000443F05468945138504C0EF003055032962
:1016F00004004A8565374A85553701468545138577
:1017000004C0EF00B0530840513F0146894513859E
:1017100004C0EF00B052084051376FE0BFAFEFE2B6
:101720003FADB7140140138504C001468945EF0061
:10173000F05001468545138504C037040020EF00B2
:10174000F04F1304443F0840913F054689451385F7
:1017500004C0EF00B04E084091370546854513851B
:1017600004C0EF00B04D0840153F6FE0BFAAEFE2A4
:101770003FA8411185452145EF0090668D473714FC
:1017800001407C82D1473EC64C008D47130504C002
:101790003EC4EF00903D130504C005468945EF00A7
:1017A000F04905468545130504C0EF003049853FE3
:1017B00041016FE03FA6EFE2BFA3B714014001462D
:1017C0008945138504C0370400201304443FEF000B
:1017D000F0460840E13505468545138504C0EF0015
:1017E000F0450840653D05468945138504C0EF0076
:1017F000F0440840653501468545138504C0EF0077
:10180000F0430840613D01468945138504C0EF005F
:10181000F0426FE03FA0EFE2BF9DB71401400146E8
:101820008545138504C037040020EF0030411304C0
:10183000443F0840A53505468945138504C0EF009F
:10184000F03F032904004A85913D4A85813D0146C8
:101850008945138504C0EF00703E08408135054678
:101860008545138504C0EF00703D6FE0BF9AEFE23D
:101870003F98B714014005468545138504C03704D9
:101880000020EF00B03B1304443F0840013D0546F3
:101890008945138504C0EF00703A032904004A8586
:1018A000F53B4A85E53B01468945138504C0EF00B9
:1018B000F0380840E53305468545138504C0EF0040
:1018C000F0376FE03F95EFE23F90B71401402A8A6E
:1018D0002E8B0149B70A0020938404C09D4B214CF4
:1018E000930CF5FF634449016FE09F9103A54A3FC4
:1018F000014D01446533054685452685EF001034CA
:1019000093894A3F03A50900513B05468945268531
:10191000EF00D03203A50900513385452685EF003D
:10192000D030498C1374F40F63057D0106041374E1
:10193000F40F03A50900050D953301468945268559
:10194000EF00D02F03A50900913BE31D8DFBB307EA
:101950002B0180A363952C01193F050961B7653DF3
:10196000EDBFEFE2FF8837140140054685451305BA
:1019700004C0B7040020EF00702C9384443F8840DB
:10198000EFF0DFD105468945130504C0EF00102BA9
:101990008840EFF0BFD08545130504C0EF00F02864
:1019A0002A898840EFF09FCF130504C0014689457E
:1019B000EF00D028130504C001468545EF0010282C
:1019C000333520016FE01F85EFE2FF8037140140BF
:1019D000AA84A149B70A0020130404C003A54A3F02
:1019E00013894A3FEFF09FCB054663C304000146CD
:1019F00085452285EF009024032509008604E20432
:101A0000EFF0DFC9054689452285EF003023032A20
:101A10000900FD19E1845285EFF05FC85285EFF0AF
:101A2000FFC7014689452285EF005021E39809FA56
:101A300003250900EFF09FC62D376FE00FFDEFE2A1
:101A40008FF9130101982A842E8A32898145130661
:101A500000680A85B689B7040020EFE06FFCEFF05C
:101A60001FCC9384443F884006041374F40FEFF0B6
:101A7000FFC2EFF05FC58840EFF05FC2131584012D
:101A80006185993719C57D542285130101686FE07E
:101A9000CFF7935A8A0013958A016185353765F52A
:101AA00013158A0161850D3779FDEFF0DFD01365DD
:101AB000140062056185093F2A8471F58A85131532
:101AC00019001135EFF0BFC58A878146E3DE26FB9A
:101AD00098238C331396160022074E964D8F1AA228
:101AE00085068907E5B7EFE20FEF13D785009397D7
:101AF00085004111D98F7C86135786009317860085
:101B0000D98FAE8932892A8A7C87EFF05FC1B70707
:101B1000002003A5473F0544EFF05FB8EFF0BFBAE0
:101B200013151A006205618545351DE9AA84914A9D
:101B30007C00A69703850700413D2A8415E58504AE
:101B4000E39854FFEFF0BFBD93844184054693862C
:101B50004184CE855285E5359E20638327017954E3
:101B6000228541016FE06FEA7D54DDBF1357850088
:101B7000B707026098A31375F50F88A38280B70793
:101B800002609C23411193F7F70FDC87888741019E
:101B90008280EFE24FE419711306C0038145C8004B
:101BA000130AC10002C002C202C4EFE06FE771462F
:101BB00081455285EFE0CFE6930981027146814568
:101BC0004E85EFE0EFE5854513050010EF00701F2F
:101BD000854513058006EF00B020B7140140F1776A
:101BE0000D446149938737038A85138504407C80BF
:101BF0004AC422C2EF00607737250140930700787E
:101C00008A85130505807C804AC422C2EF00E075F6
:101C100085678A85138504407C804AC422C2EF0010
:101C2000C074930700087C808A85C14713850440EF
:101C30003EC422C2EF006073930500081385044080
:101C4000EF00807F85473EC6BD473ECA8567BED44C
:101C5000C8009167BED822D8D2DCCEDE02C802CC42
:101C600002CE02D002D202D402D602DA02DC02DEB6
:101C700082C082C282C482C682C882CA82CE82CC1C
:101C800082D082D282D682DA192D854501457D2DFA
:101C900009616FE08FD7EFE2AFD57971373401403A
:101CA000E884EC82130504C04C0832C6231D0100F1
:101CB000231B0100EF00B0143246930700063ED00C
:101CC0000C109147130504C02312F1022313C10223
:101CD00023150102EF00501D130504C08545EF00D8
:101CE0001029130504C08145EF00702B130504C0B3
:101CF0008545EF0030298545130504C0EF00B02568
:101D000045616FE02FD1EFE2AFCE0565411185450A
:101D100013058580EF00D00C91677C823715014058
:101D2000E1474C003EC6130505C08D473EC4352D26
:101D300013054006EF003036130620039305F00824
:101D400013054006893F41016FE0CFCCB707026021
:101D50001307A002A38FE7FE1357850098A31375FE
:101D6000F50F88A31357860098A31376F60F90A358
:101D70001307B002A38FE7FE13D7850098A393F54E
:101D8000F50F8CA313D7860098A393F6F60F94A3B0
:101D90001307C002A38FE7FE8280EFE26FC59306B0
:101DA000F00E935485001374F50F1306F00E814561
:101DB0000145693F1307000FB70602609307000F44
:101DC000FD1784A2C20780A2C183FDFB7D174207D5
:101DD00041836DF76FE00FC4EFE28FC12D37EFF055
:101DE0005FDB370402609147A30FF4FEEFF03FD9A9
:101DF000EFF0FFD8EFF0BFD893140501C180A20423
:101E0000C204EFF0DFD7C180458D9315050137A5DA
:101E10000000C181130545C7EF50E066130520039C
:101E2000EF00702793076003A30FF4FE2300040064
:101E30001306A003A30FC4FE95471CA0930720FB25
:101E4000A30FF4FEB14614A014A0230004009307CE
:101E500030031CA01CA0130770FBA30FE4FE23009B
:101E600004001307B0FBA30FE4FE1303F0032300E9
:101E70006400130700FCA30FE4FE1307C00218A0C0
:101E8000130720FCA30FE4FE054718A0130730FC3E
:101E9000A30FE4FEB54823001401130740FCA30F71
:101EA000E4FE1307000218A0130760FCA30FE4FE72
:101EB0000D4718A0930500FDA30FB4FE930540FA4B
:101EC0000CA0930510FA0CA08155A30FB4FE415845
:101ED0002300040118A0A5450CA018A0414518A096
:101EE0009305D00208A00CA01307300418A023000B
:101EF00064001CA023001401394718A09304900229
:101F000004A093082003230014018558A30F14FF95
:101F10002300040114A008A018A018A0294718A0A5
:101F20000CA01CA0930750041CA010A0D1471CA01B
:101F3000E5471CA0930710031CA0930770031CA087
:101F400093071002A30FF4FEC547A30FF4FE130579
:101F50004006EF0050140145EFF03FE43715014013
:101F60009165130505C0F921A30F94FE6FE08FAAB8
:101F7000EFE20FA83284AE862A86EFF03FDD22859D
:101F8000EFF0DFBE6FE00FA9EFE28FA609456529EC
:101F9000A922EF00B00D716513050520EF001013A5
:101FA000B707002083A5873F37A50000130505C8A4
:101FB000EF50604DC524AA8537A50000130505C95B
:101FC000EF50604C37A50000130505CAEF50405D87
:101FD000EFF09FE0EFF0EFB9EFF0AFC2EFF06FCEB0
:101FE000E5BFB71702409843B706FFF041111367EA
:101FF000170098C3D84337060200758FD8C398439B
:10200000B706F7FEFD16758F98C39843B706FCFF19
:10201000FD16758F98C3D843B70601FFFD16758F5F
:10202000D8C39843B70600ECFD16758F98C33707E1
:10203000FF0098C723A6070202C402C69843C166E0
:10204000558F98C3B716024005679C42F18F3EC674
:10205000A24785073EC4B24781E7A247E397E7FE60
:10206000B71702409C431397E7006356070685475E
:102070003EC632478547631EF704B7170240D84370
:10208000B706C1FFFD16D8C3D843D8C3D8431367DA
:102090000740D8C3D843758FD8C3D843C166558F7E
:1020A000D8C39843B7060001558F98C39843931639
:1020B0006700E3DD06FED843B7160240719BD8C324
:1020C000D84313672700D8C32147DC42B18BE39E76
:1020D000E7FE4101828002C669BFB7160240D842BE
:1020E0001146318B938781806305C70021466308C1
:1020F000C70237177A001307072098C33717024023
:10210000584311839376F700370700201307072001
:102110003697142398433357D70098C38280D84208
:10212000D442416649833D8BF18E1306270015CFBB
:102130003D47630FE6024147630FE602454781458D
:102140006313E6004146A1E23747024003270780B8
:10215000418B0DC737177A00130707203306C702D4
:1021600090C3C9DD9843058349BF81454946E1BF16
:1021700085453546C9BF81453D46F1B737173D0016
:1021800013070790E1BF3715024058559316F70023
:10219000585563DF060411833D8B930617003717EC
:1021A0007A00130707203357D70298C35455A182EA
:1021B000BD8A8DE295463307D702058398C337174A
:1021C0000240585794433D8B050733D7E60298C326
:1021D000984369B705456394A600E546E9BF3D45C8
:1021E0006396A600D1463387E602C9BF8906E5BFDC
:1021F0003D8B9306170037177A00130707203357D4
:10220000D702F1B701A097F1FF1F9381A19E17E1BB
:102210000120130121DF178500001305A56997E54B
:10222000FF1F938525DE1386018463FAC500832290
:10223000050023A0550011059105E3EAC5FE1385AD
:102240000184977500209385E5676377B5002320A7
:1022500005001105E36DB5FEFD42739002BCAD4271
:1022600073904280B76200009382820873900230BC
:1022700097E2FFFF938242D993E23200739052308B
:10228000EFF03FD697020000938242D07390123451
:1022900073002030B7F7FF1F03A5477082801445F5
:1022A0005C4158450328C502D58FD98F1849370698
:1022B00000A0D98F5849D98F184DD98F584DD98F33
:1022C0001851D98F5851D98F1855D98F1859B3E74C
:1022D0000701D98F18410A073A961CC2A147639695
:1022E000F6001C4293E707041CC254598C4E9C42D2
:1022F000CD8FCC429205CD8F8C46A205CD8FCC469A
:10230000C205CD8F8C4AD44AD205CD8FE206D58F37
:102310005CC291676313F802145D904E9C42D18FAA
:10232000D04294461206A206D18FD58FB70600A0E0
:102330009386461036971CC38280B70700A0938708
:1023400047103E97B7070010FD17F5B7B70700A075
:102350000A053E951C4189C593E717001CC1828080
:10236000370710007917F98FD5BF9C4513F7070180
:1023700013F8F70001C7D8413368E8008E2113F73E
:10238000F50F39C318418146854E3D4F930F8002AA
:1023900093028004214E3396DE00B3F8C50063112A
:1023A00016039398260033131F011343F3FF33776B
:1023B000E300B318180133E7E800639FF70550C93D
:1023C0008506E39AC6FD18C11307F00F6375B704BD
:1023D00054412146854E3D4F930F80029302800465
:1023E000414EB398CE0033F715016392E8021317FC
:1023F000260001173313EF001343F3FFB376D30026
:102400003317E800D98E639DF701232A15010506CD
:10241000E319C6FD54C18280E39457FA10C94DB741
:10242000E39757FE23281501DDB708456D8D333539
:10243000A00082800CC982804CC9828019C20CC95C
:1024400082804CC9828023A4A184828037170240F5
:102450005C439146B18B6385D700A1466382D70662
:10246000B7177A00938707201CC1371602405C42D9
:1024700037070020130707219183BD8BBA97942358
:102480001C41B3D7D7005CC15442A1829D8ABA9641
:102490009422B3D6D70014C55442AD829D8A369794
:1024A0001823B3D7E7005CC55842398393763700C9
:1024B0001387C18036971823B3D7E7021CC98280DF
:1024C0005C435843C166C983758FB7F6FF1F83A667
:1024D000C670BD8B89071396160163480600C54672
:1024E00001466392D702C94739A88946638FD7024C
:1024F000BD46638ED702C146638ED702C5460146EC
:102500006393D700C1471DEF374702400327078079
:10251000418B05C737177A0013070720B307F70267
:102520001CC121D61C41858381B701466DBF05467C
:10253000B547D1BF0146BD47F9B737173D0013076F
:102540000790E9BFB7150240D8559316F700D85544
:1025500063DF060411833D8B9306170037177A005B
:10256000130707203357D70218C1D455A182BD8A5B
:102570008DE295463307D702058318C1371702400D
:10258000585714413D8B050733D7E60218C118414F
:1025900071B785456394B600E546E9BFBD456396CE
:1025A000B600D1463387E602C9BF8906E5BF3D8B39
:1025B0009306170037177A00130707203357D702FF
:1025C000F1B799C5371702405C4B5D8D48CB8280CF
:1025D000B7170240D84B1345F5FF798DC8CB8280E1
:1025E00099C5371702401C4F5D8D08CF8280B71701
:1025F0000240984F1345F5FF798D88CF82801E21C8
:1026000037370140930607C0C207C1836300D50472
:10261000B7060040630CD502938606406308D502D6
:10262000B7160040138606806302C502938606C073
:10263000630ED50013070740630AE50037570140D2
:10264000930607C06304D5006316E500BA2193F72B
:10265000F7F8D98F37170040630CE50013070740E0
:102660006308E50093F7F7CFFA21C207C183D98F3A
:102670001EA1DE215EB59E211EB5B737014013872E
:1026800007C0630EE50093870740630AF500B7575C
:102690000140138707C06304E5006314F5009C251F
:1026A0001EB985475EA982801E3165771307F7CF73
:1026B000C207C183BD9BC207C1831EB11E31562113
:1026C00003D88500C20713960601162DC18393F720
:1026D000F7FD758F96214182A206558FB6214207DC
:1026E0004183B3E606019206D58FB7360140C20793
:1026F000138806C0C183630E050193860640630AF2
:10270000D500B7560140138806C063040501631E57
:10271000D502B62593F7F7F703D8C5009206D58FF3
:10272000D621C207C183920693F7F7FBD58FFD76BA
:102730009386F63FF18EF225C207C1833366060108
:102740000A06D18E13960601418252A11AADFA21D2
:102750001ABD1EB182801E2189C593E717001EA1F4
:102760008280C207C183F99BC207C183CDBF835753
:10277000450491C52167D98F2312F5048280C607CD
:10278000C583DDBF1E2189C593E707081EA182808E
:10279000C207C18393F7F7F7C207C183C5BF1A2DDC
:1027A000FD779387F77FF98FA205CD8FC207C1838D
:1027B0001EAD8280EFD2DFA31629F577FD17F58FC6
:1027C000F621DA257971D58F1EA95625FD779387D5
:1027D000379FF58FD6212A842EC6D58F9625D58F83
:1027E000B625D58F5EA55E29C207C18393F7F7CFC3
:1027F000D98F5EA96808EFF07FC5B747014093877E
:102800000780B245631EF402A2576547B387E7020B
:102810009841930640060A07B3D7E70233D7D70299
:10282000B3F7D7021207920793872703B3D7D702CC
:10283000BD8BD98FC207C1831EA445616FD09F9DF8
:102840009257E1B791C55E250967D98F5EA5828051
:102850005A25F977FD17F98FD5BF93F5F51F4EA1CE
:1028600082800A216D8D3335A0008280B707002059
:1028700083A7873F37177A0013070720B3D7E702EC
:1028800093F7F70F2387F1841307803EB387E7029E
:102890002396F1848280B7F700E0D8438146799B84
:1028A000D8C303D7C1843306A70290CBD4CB9843B7
:1028B0001367070198C398431367170298C3D84357
:1028C000058B75DF9843799B98C38280EFD25F9226
:1028D0002A841165011185451105EFF07FD093071A
:1028E00000207C82371501408D473EC44C00E147F3
:1028F000130505803EC6EFF05FA722C837440140AC
:10290000B70708000C08130504803ECC02CA231E3A
:102910000100EFF03FEA854513050480EFF09FF2D8
:1029200005616FD03F8FEFD21F8BB7440140AE8956
:102930003289014493840480634524014A856FD021
:10294000DF8C930500042685EFF0BFF17DD9B387B6
:1029500089008385070026850504C205C181EFF043
:10296000DFEFD9BF138701811C43B7A600209386F0
:10297000068C3E95636BD500B706022093860680D1
:1029800063E5A60008C33E858280FD57EDBF732531
:102990001034828073252034828073253034828005
:1029A0001D715EDE938B4181A2CCA6CACAC8CEC679
:1029B000D2C4D6C2DAC086CE2A89AE893284B68421
:1029C0007D2E03AB0B00FD57AA8A2E8A6307FB06F8
:1029D0002286A6862285A685EF20705F39ED4A867D
:1029E000CE864A85CE85EF20905E01468146631BE8
:1029F00005104A85CE85EF20400129ED014681462C
:102A00002285A685EF2060004DE185473EC497777B
:102A100000009387A72D3EC602D44AC84ECA22CCD6
:102A200026CE02D002D2630D0B1097770000938759
:102A3000E72883AA070003AA4700F64066445685A4
:102A4000D285D6444649B649264A964A064BF25B99
:102A5000256182805685D285EF00507D630F050E7B
:102A60005685D28501468146EF10307A79F54A8540
:102A7000CE85EF00B07B71D12285A685EF00107B5B
:102A80004DDD914703A70B003EC497770000938765
:102A9000E7253EC602D44AC84ECA22CC26CE02D072
:102AA00002D28947631BF71235AA2285A685EF005B
:102AB000F07741D5014681462285A685EF20600644
:102AC000E35D05F6054783A70B003AC417770000BE
:102AD0001307C7213AC602D44AC84ECA22CC26CE12
:102AE0006398071002D002D22800EF001075630C23
:102AF0000510A25789C7EF30707AA2571CC1825ABD
:102B0000125A25BF2285A685EF1030701DF59777E4
:102B100000009387A71A03AA470083AA07008546E7
:102B200036C4977600009386661C36C602D44AC81F
:102B30004ECA22CC26CE56D052D28947E30FFBEEA6
:102B40002800EF00906F71C5A257D5DBEF301075EC
:102B5000A257825A125A1CC1CDB54A85CE85EF00C4
:102B6000F06CE30F05EE2285A685EF00306CE309DB
:102B700005EED286D2855686568503AA0B00EF2035
:102B8000104563170510977700009387271490432B
:102B9000D4438D472285A6853EC49777000093874E
:102BA000E71422CC26CE3EC602D44AC84ECAEF2035
:102BB000A0022A84AE8463140A06977700009387E4
:102BC00067119843DC43014681464A85CE853AD059
:102BD0003ED2EF101075634805062800EF00F0653F
:102BE000E31905F0EF30906B930720021CC111B779
:102BF000977600009386060D9042D442094732D062
:102C000036D2E393E7EEEF307069930710021CC1F0
:102C1000CDB5EF30B068930710021CC135B7977778
:102C200000009387270C9843DC43014681464A8580
:102C3000CE853AD03ED2EF10D06E634A0502894766
:102C4000E302FAFA59BF2285A685EF00306022869A
:102C5000A686EF10905B15C9977700009387070849
:102C60009843DC4303AA0B003AD03ED2C9BF228569
:102C7000A685EF00B05D2286A686EF10105911C51B
:102C80009777000093870704E1BF03AA0B0045BFB5
:102C900085473EC497770000938747053EC602D418
:102CA0004AC84ECA22CC26CEE30E0AE2014681462D
:102CB0003285B685EF10207A2AD02ED28947E304D8
:102CC000FAF41DB55D71A2C4A6C2CAC052DE56DCBC
:102CD00086C62A84AE84EF00D0379387418103A94A
:102CE0000700FD572A8AAE8A6301F9022286A6866A
:102CF0002285A685EF20B02D09E90146814622856F
:102D0000A685EF101062634C0500B640264452853C
:102D1000D68596440649725AE25A61618280854797
:102D20003EC4977700009387A7FC3EC602D422CC0E
:102D300026CE22C826CA630709020146814632858B
:102D4000B685EF1040712AD02ED28947631EF90054
:102D5000EF30D054930710021CC1A25781EF025AE2
:102D6000925A65B702D002D22800EF00104D6DD103
:102D7000A257F5D7EF309052A2571CC1CDB73708F4
:102D8000008019711348F8FFCAD833F9060186DEAE
:102D9000A2DCA6DACED6D2D4D6D2DAD0DECEE2CC3F
:102DA000E6CAEAC8EEC6B367C900DDC73374B80027
:102DB000B707F07FAE8A2A8A63DB8702370810C024
:102DC00022983368A800B705F03F0145631D080845
:102DD000F6506654D6544659B659265A965A065B4A
:102DE000F64B664CD64C464DB64D09618280630960
:102DF000F406E3C527FDB707F07F630FF91AAE8429
:102E0000AA89B28CB68D014D63C30A0863900C0C7D
:102E1000B706F07F6301D914B706F03F630FD914EA
:102E2000B7060040E383DD18B706E03F6390DD0A94
:102E300063CE0A086654F6504659265A965A065BDF
:102E4000F64B664CD64C464DB64D4E85A685B659CA
:102E5000D65409616F00F01F0145B705F03F8DBFE3
:102E600019E1E35A24F96654F650D6544659B65936
:102E7000265A965A065BF64B664CD64C464DB64DD6
:102E800017750000130545D409616F00503BB70664
:102E900040436356D912B706F03F6347D9029356B1
:102EA0004941938616C05146E359D6101306400394
:102EB000B306D64033D6DC00B316D600639696012F
:102EC000058A0943330DC340E3880CF44E85A6857B
:102ED000EF00703563050A0413DEF4017D1EB3664E
:102EE000CD01E5C2B706E04163D8260FB706F0432F
:102EF00063D9267B3707F03F6350E40A63DC0D0695
:102F000097770000938787E19043D4433285B68555
:102F1000EF10904C75BDEF00103163140A0A01C820
:102F20009396240089823706F03FE397C6FA63C878
:102F30000D06E3DF0AE8B70710C0A297B3E7A701C1
:102F4000E39B070A2A86AE86EF2080142A86AE8687
:102F5000EF106050B5BD370510C0229533653501BF
:102F6000E30C05EE3707F03F634FE470EE85014553
:102F7000E3D00DE601458145A1BD4E85A685E3D987
:102F80000DE497770000938767D38843CC434E8640
:102F9000A686EF10404C2DBDE344B0F7E1BF177794
:102FA00000001307A7D1AA8CAE8708434C4366865E
:102FB000BE86EF10404AB5BFE30306E401B5094DF4
:102FC000B1B54E86A6864E85A685EF20600C2A8672
:102FD000AE86EF104048EDBBB706F07FF58C01469A
:102FE00091EC97760000938666D69042D44272C4E4
:102FF000EF10903E224E2E841306B0FCB705100051
:10300000935E44411388F5FFB7A60300938E1EC05C
:1030100033780401370CF03F9386E688B29E336C18
:10302000880163DB0667B7B60B009386966763DC9F
:10303000067D977A0000938A6AC8850E330CBC40DF
:1030400083A70A0003A84A0002C802CA02DC02DE03
:1030500081493EC442C62244B244E2852286A68605
:1030600076DA72D82A89EF20A0022A8BAE8B2286CC
:10307000A6864A85E28522C426C6EF00D04A2A8663
:10308000AE8603A50A0083A54A008144EF10A03C48
:103090002A86AE862ACC2ECE5A85DE85EF10D03316
:1030A000135F1C40B7060020336FDF00B70608002F
:1030B000369FFA992A8ACE86014626852E84EF10FD
:1030C000B0312A86AE865A85DE85EF10707C2246A6
:1030D000B2462A8BAE8B0145CE85EF10707B2A86D7
:1030E000AE864A85E285EF10B07A2686A286EF107A
:1030F000B02E2A86AE865A85DE85EF10707962483A
:10310000F248977B0000938BEBC74286C686EF1090
:10311000B02C5286A2862AC42EC65285A285EF10F4
:10312000B02B977600009386E6C29042D4422A895B
:10313000AE89EF10702A97760000938626C29042DF
:10314000D442014B014CEF00103E4A86CE86EF1070
:10315000B028977600009386E6C09042D442EF00F4
:10316000903C4A86CE86EF103027977600009386F3
:10317000E6BF9042D442EF00103B4A86CE86EF1065
:10318000B025977600009386E6BE9042D442EF00C9
:1031900090394A86CE86EF103024977600009386C9
:1031A000E6BD9042D442EF0010384A86CE862ACC43
:1031B0002ECE4A85CE85EF1030226247F2472A860E
:1031C000AE863A85BE85EF1030212A89AE892686E3
:1031D000A2865285A285EF0010352246B246EF1036
:1031E000B01F4A86CE86EF0010342A89AE89268623
:1031F000A2862685A285EF10301E03A60B0083A6AB
:103200004B002AD42ED6EF0010324A86CE864ACC06
:103210004ECEEF0050312E895A86AE862685A28585
:10322000EF10901B03A60B0083A64B002AD02ED2D2
:103230005A85CA85EF10D065225FB25F7A86FE8616
:10324000EF1010652A86AE866245F245EF10506495
:103250005286A286EF1050182A84AE842245B245C9
:103260005A86CA86EF1050172A86AE862285A68512
:10327000EF00702B025B925B2A84AE842A86AE86B6
:103280005A85DE85EF00302A97760000938606B0D7
:103290009042D44262852E8AEF1010142A89AE899A
:1032A0005A86DE866285D285EF10905E2A86AE86CB
:1032B0002285A685EF10D05D97760000938686ADB7
:1032C0009042D442EF10501197760000938606ADDD
:1032D0009042D4422A84AE846285D285EF10D00F0A
:1032E0002A86AE862285A685EF00F0236256F25626
:1032F000EF007023D25E2A8BAE8B7685EF20E050F4
:103300002A84AE845A86DE864A85CE85EF00B021B7
:103310004246D246EF0030212286A686EF00B0203A
:1033200001463285A6862286AE842A84EF10505646
:103330004246D246EF10D0554A86CE86EF10505501
:103340002A86AE865A85DE85EF109054425E2A8921
:10335000AE891303FDFF336EC301631F0E309776F2
:1033600000009386269B9C4203A846003EC442C6AA
:10337000014C6286EE866685EE85EF1070512286DE
:10338000A686EF1070052A8BAE8B6686EE864A8580
:10339000CE85EF1070042A86AE865A85DE85EF0052
:1033A00090182A89AE896286EE862285A685EF105E
:1033B000B0022A86AE862A84AE844A85CE85EF0086
:1033C0009016B70790402A8A2E8BAE8B63CCF524DB
:1033D000B387F540C98F639B0740977700009387B9
:1033E000679C9043D4434A85CE85EF00D0132A8D45
:1033F000AE8D2286A6865285DA85EF1070492A8620
:10340000AE866A85EE85EF10E0666341A03E93D7F5
:103410004B4193F7F77F37051000938727C0B357C9
:10342000F540DE9713D747411377F77F130717C08F
:10343000130AF5FFB355EA4093C5F5FFFD8D33FA46
:103440004701D147336AAA003387E7400146AE8679
:10345000335AEA4063D40B00330A40412285A685E3
:10346000EF1010432A86AE862A84AE844A85CE8524
:10347000EF00700B2E8B931D4A0117770000130786
:10348000679310435443014C6285DA85EF10C07492
:103490005A8DAE8B2A8B2286A6866285EA85EF102E
:1034A000303F2A86AE864A85CE85EF10703E17776C
:1034B00000001307A79010435443EF10E0711777F3
:1034C000000013072790104354432A84AE8462857A
:1034D000EA85EF1060702A86AE862285A685EF0009
:1034E00090042A89AE892A86AE865A85DE85EF0049
:1034F00090035A86DE862A84AE84EF1070392A86BD
:10350000AE864A85CE85EF10B0382A8BAE8B2286E8
:10351000A6862285A685EF10206C977700009387FA
:10352000E78A9043D4432A89AE89EF10E06A9777FF
:1035300000009387278A9043D443EF1070354A8662
:10354000CE86EF10606997770000938727899043B4
:10355000D443EF00407D4A86CE86EF10E067977730
:103560000000938727889043D443EF1070324A8637
:10357000CE86EF1060669777000093872787904389
:10358000D443EF00407A4A86CE86EF10E0642A8664
:10359000AE862285A685EF10B02F2A86AE862A8CAD
:1035A000AE8C2285A685EF10206397660000938677
:1035B000E65E9042D4422A89AE896285E685EF10A4
:1035C000302D2A86AE864A85CE85EF00D0682A89BE
:1035D000AE895A86DE862285A685EF10E05F5A8680
:1035E000DE86EF0040742A86AE864A85CE85EF10CF
:1035F000302A2286A686EF10B029AE862A8683A5B9
:103600004A0003A50A00EF10B028B387BD0093D687
:103610004741635DD022BE852246B246EF10C05BB3
:103620006FF00FFB93971500B7D690408583938674
:10363000F6BF63D5F61AB7376F3F93870740AE974B
:10364000C98F99EB2286A686EF1090244A86CE86F3
:10365000EF104042E34D05DA1764000013040475CF
:10366000104054402245B245EF10005710405440DE
:10367000EF1080566FF0CFF583A70A0003A84A0029
:103680003EC442C6F5B1E3D70D8EB70500800145B3
:10369000B3C5B5016FF0CFF3976A0000938A0A6251
:1036A00045B2B706F03F1386E6FFE3598684E3C5CB
:1036B000868E976A0000938A6A6003A60A0083A632
:1036C0004A0072C8EF10D01C97660000938686658A
:1036D0009042D4422A84AE84EF10005097660000D6
:1036E0009386C6649042D4422A89AE892285A685F3
:1036F000EF10804E976600009386C6639042D442D6
:103700002AC42EC62285A685EF10004DAE86976589
:1037100000009385A5622A868841CC41EF1050179E
:103720002286A686EF10404BAE86976500009385F3
:10373000E5592A868841CC41EF1090152A8BAE8B33
:103740002286A6862285A685EF1000492A86AE86A7
:103750005A85DE85EF104048976600009386865EA6
:103760009042D442EF1040472247B2472A86AE86A5
:103770003A85BE85EF10D0112A86AE862A8BAE8B95
:103780004A85CE854D230146CE86328532844A86CF
:10379000AE84EF10F00F2A86AE865A85DE85EF10D4
:1037A000300F2A89AE89424E6DB64E864E85A6866A
:1037B000A685EF1060426FF0AFE1639E0CF4B30694
:1037C000D6403356D940B316D600668D639626E5AB
:1037D000058A0943330DC3406FF00FE43707E03F1C
:1037E000814D014AE35BF7C8D18735B1176400000A
:1037F0001304C452B5B58547631CFDDCB7070080D0
:10380000BD8D6FF0EFDC976600009386264F9C42DB
:1038100003A84600976600009386C64E3EC842CA7B
:103820009C4203A84600976600009386264E3EDC25
:1038300042DE9C4203A84600B70904003EC442C6CB
:10384000976A0000938A8A476FF0FF80528651265C
:10385000E1B341113707F07F22C426C206C6337890
:10386000B7002E84AA84630DE816AE87AA86635F2C
:10387000B00E13DE454163000E1A37071000130621
:10388000F7FFF18FD98F130E1EC013971700137611
:103890001E0093D7F601BA971397160011C67D83C1
:1038A0008607BA9713972600135E1E40D945814EAE
:1038B0008146370620003385C6001358F701FD15F1
:1038C00063C6A700898FB306C500B29E8607C2975C
:1038D00006070582EDF11305000201438148370612
:1038E000008019A86385D70E9355F70186077D15CB
:1038F000AE97060705820DC9B3051601E3D4F6FE9F
:10390000B388C500368863CE050A958FB336B700F5
:10391000958F0D8F9355F70186077D153293C286DB
:10392000AE970607058269F9D98F9354130089CBA6
:1039300093041300FD5785806314F300850E8144C2
:1039400013D71E403704E03F93FE1E003A94638570
:103950000E00B7070080DD8C13174E012297B2408E
:1039600022442685BA85924441018280139715002E
:1039700005833368A7002E87E30308FED1E193D5C2
:10398000B600AD172E87D606FDD913D6450159E6E8
:10399000014611A02A8606079315B70013051600E5
:1039A000E3DA05FE930800023688B388A840BA859A
:1039B000B396A60033571801338EC740B367B700DC
:1039C0006DBD13C8F8FF1358F80136983DBFE36D7D
:1039D000B7F0B388C500E3C605FE3E88814715BF32
:1039E0002A86AE86EF10401F2686A2862D2EB24074
:1039F0002244AA842E872685BA859244410182807A
:103A00002A86AE86EF10C0682A86AE86EF00B02404
:103A1000AA842E87A9B72E8781479DBF3688930831
:103A200000027D5641BF860585818280860585819D
:103A3000370510802E957D818280014582809767B1
:103A400000009387273B8843CC43828013D74541AE
:103A500079711377F77F22D406D626D24AD04ECE7C
:103A6000130617C0CD48AE87AA862E8E13D4F50153
:103A700063C6C810634A0608B7051000FD15B3D524
:103A8000C54033F5F500558DB6883E832DC585813B
:103A900033F8F5003368D800630508029306E7BEE3
:103AA000370E040093B6160093C5F5FF3708008063
:103AB000B306D040ED8F3356CE403378D80033EE86
:103AC000C7009767000093876733131334003E9352
:103AD00003240300832443004286F2862285A685C0
:103AE00099242AC42EC62245B2452286A686EF1006
:103AF000205AAA882E83B250225492540259F24975
:103B000046859A8545618280B704008093C4F4FF9E
:103B100033F7B400498FAA882E8371DF9397C500CD
:103B2000B18333E7A700B307E040D98F9766000061
:103B30009386C62C13173400BA96B18303A90600E6
:103B400083A946000177370308006D8F33F36700C0
:103B50003363E3009A862A86CE854A85E9222AC401
:103B60002EC62245B2454A86CE86EF106052ED8CB5
:103B70001313F40133E36400AA88B5BF930830033C
:103B800063DEC80013070040AA882E83E315E6F61B
:103B90002A86F286492AAA882E83B1BF1307D7BE88
:103BA0007D563356E600B375A600AA883E83A1D59C
:103BB0000582B377A6002A88E38507F0370800401E
:103BC0001346F6FFB376A6003357E84033E8E60025
:103BD000CDBD411193D7454122C406C626C293F7F5
:103BE000F77F2E87AA863284C1E7939715008583D5
:103BF000C98FA5CB9767000093874721D443904393
:103C0000EF00907DD177938707CBAA862E876340FC
:103C1000F40E93D7454193F7F77F2E869387A7FC41
:103C2000A2979305E07F63C2F50A6345F00A930506
:103C3000B0FC63D0B706B1679387073563C78708C1
:103C400097670000938787168043C4433686228592
:103C5000BA86A6857528A6862286EF00F077AA8602
:103C60002E87B240224492443685BA854101828033
:103C70001308F07F2E86E39507FBAE862A86652023
:103C8000B2402244AA862E8792443685BA854101E5
:103C90008280370710807D1793876703798ED2075C
:103CA0001767000013070717B685D18F54431043D9
:103CB0002E85BE85EF005072B2402244AA862E8720
:103CC00092443685BA8541018280976700009387C8
:103CD000E7049DBF37071080B24022447D17718FE3
:103CE000D2075D8F92443685BA85410182809767FD
:103CF00000009387A70BD4439043EF00F06DB240D0
:103D00002244AA862E8792443685BA854101828054
:103D1000370700809347F7FFF98EED8F2A87D58FFD
:103D20003A85BE8582803708100001117D183377EF
:103D3000B80026CA3378D80093D4450113D346017E
:103D4000131E37004EC61357D5010E089357D601E0
:103D500093F4F47F1373F37F06CE22CC4AC893D931
:103D6000F50193DEF6013367C701131F350033E811
:103D70000701931F3600338E64406380D919635660
:103D8000C0136304031CB70680009307F07F3368F9
:103D9000D800638FF4369307800363C0C735FD47AF
:103DA00063CDC747130500023305C541B3D7CF0123
:103DB000B316A8003399AF00DD8E33392001B35715
:103DC000C80133E926011D8F33092F41B3372F0175
:103DD0003306F7409317860063D407243707800023
:103DE0007D173374E600630C042C2285EF203044E9
:103DF000130785FF93070002998FB357F900331615
:103E0000E400D18F3319E9006341972A33059740C5
:103E1000130615007D47634DC73813070002118F45
:103E2000B356C9003319E9003397E700558F33398A
:103E300020013369270133D6C70081449377790085
:103E400081CF1377F90091476308F7001307490002
:103E5000333927014A963A899317860063D6071C9F
:103E6000138514009307F07FCE856304F520B70710
:103E700080FFFD17F18F9398D70113593900A607DA
:103E8000B3E82801B1831375F57F9396C7005205F7
:103E9000F2406244B182FE05C98ECD8ED2444249C1
:103EA000B2494685B68505618280631E0E0A13837A
:103EB00014001373E37F63170322B367E701B3684A
:103EC000F801639D041A6387074063860844330939
:103ED000FF41B307074133362F013386C74093179D
:103EE000860063D6074C3389EF41B307E84033B609
:103EF0002F013386C740F68991B76350C00F630026
:103F0000030CB70680009307F07F3368D800638AFC
:103F1000F43A9307800363CBC713FD4763DFC735CC
:103F200013090EFE93070002B3562801630AFE0030
:103F3000130900043309C94133192801B3EF2F01D4
:103F40003339F0013369D90031A2B367F801638ACC
:103F5000071C9307FEFF638C07389306F07F630905
:103F6000DE1A3E8E0DBDB305934063910422B36704
:103F7000E701638707329387F5FF63810744930660
:103F8000F07F638CD520BE859307800363CCB72A6E
:103F9000FD4763CFB73C930700028D8F3319F700BD
:103FA000B356BF00B317FF003369D900B337F00031
:103FB0003357B7003369F9003308E84041ACB367C1
:103FC000F801638007349307FEFF638A0720930696
:103FD000F07F6308DE2E3E8E2DBF631E0E14938687
:103FE000140093F7E67F63910734B367E7016395A5
:103FF000042C6380073EB367F801638E07303309F2
:10400000FF01B3070701333FE9013386E701931747
:10401000860063D70700B70780FFFD177D8E8544B4
:1040200093777900E39F07E09317D60193583900FF
:10403000B3E8F800935736001307F07F638DE4046C
:10404000B207B18313F5F47FCE8581B53369F801EA
:10405000333920017A99B337E9013386E7009317A2
:104060008600E3DF07FA85049307F07F6396F41870
:10407000CE851305F07F8147814801BDC1EB638484
:10408000083A931636009317D8018D82B3E8D7000B
:10409000F68993573800B3E7F800F9DB814513053B
:1040A000F07FB70708008148CDB3370680FF7D1643
:1040B0007D8E93777900998CE39507D8B5B74A85BB
:1040C000EF20F01613078501FD47E3D5E7D213066D
:1040D00085FFB317C900014905BB3369F8013339BE
:1040E0002001DDB13309FF413306074133342F018D
:1040F000330486409317840063CD0724B368890096
:10410000E39308CE8147814981441DBFE39808F8B5
:104110000E059317D7010D81B3E8A7009357370019
:104120009DBF0E059317D7010D81B3E8A700F28458
:104130009357370011B73305934063820412B706D3
:1041400080009307F07F558F630DF32E9307800354
:1041500063CBA720FD4763C3A72A93070002898F7B
:104160003319F700B356AF00B317FF003369D90016
:10417000B337F0003357A7003369F9003A987E99B6
:10418000B337F901338607019A84D1BDB7068000A1
:104190009307F07F558FE319F3DE931736008D8375
:1041A0009318D801B3E81701F68993573800E5B59D
:1041B000130715FE9306000233D7E700630AD60003
:1041C000930600043386C6403396C7003369C9009E
:1041D000333920013369E9000146814491B533093F
:1041E000FF01B30707013336E9013E9693178600B6
:1041F0008544E3D707E28944B70780FFFD17F18FB5
:104200001357190013791900336927019398F7019F
:1042100033E9280113D6170015B113090EFE9307D1
:104220000002B3562801630AFE0013090004330993
:10423000C94133192801B3EF2F013339F001336934
:10424000D90059B63369E7013339200133892F4149
:10425000B3B72F013306F8409A84F689A5BEB36739
:10426000E701638207189307F5FF6384071C930631
:10427000F07F6304D5123E85D1BD93070002B3875A
:10428000C741B316F8003399FF0033D6CF01D18E62
:1042900033392001B357C80133E926013E975DBB8E
:1042A000931736008D839318D801B3E81701AE84B5
:1042B00093573800F68949B3EDC33369F801E31F1A
:1042C00009DC0E059317D7010D81B368F5009357EC
:1042D0003700D1B36381080E931636009317D801C7
:1042E0008D82B3E8D700F6899357380091BB330924
:1042F000FF41B3070741333F2F013386E741854430
:10430000D1BC0E059317D7010D81B368F500F28477
:104310009357370015B30E059317D7010D81B3E8F6
:10432000A7009357370029BB9307F07FE382F6D4A9
:104330003309FF013336E901B3070701B2979398B8
:10434000F7011359190033E9280113D61700B68471
:10435000C1B93389EF413307E84033B62F01330445
:10436000C740F68949B43369E7013339200101BDFB
:10437000938705FE93060002B357F700638AD500C2
:1043800093060004B385B6403317B700336FEF00D0
:104390003339E0013369F90055BD931736008D8339
:1043A0009318D801B3E8170193573800EDB1B368FB
:1043B000C900E39708C68147814959B13389EF4164
:1043C000B307E84033B62F013386C740F6898544EA
:1043D00011B4931636009317D8018D82B3E8D70035
:1043E00093573800B1B9931636009317D8018D82D0
:1043F000B3E8D700AA84935738003DB9930705FE68
:1044000093060002B357F700630AD5009306000431
:104410003385A6403317A700336FEF003339E0012F
:104420003369F900A9BB81451305F07FB707080080
:10443000A9BC3309FF01B30707013336F9013E96E2
:1044400075B3931636009317D8018D82B3E8D70061
:104450009357380089B1397193D7450122DC4AD886
:1044600056D22A891394C50006DE26DA4ED652D4D7
:104470005AD05ECE13F5F77F318093DAF501630BE6
:1044800005109307F07F630BF514135AD9010E043E
:1044900033648A00370A8000336A4401131B3900F1
:1044A000930415C00144814B13D846011399C600EB
:1044B0001378F87FB2881359C90093D9F601630EB7
:1044C00008089307F07F6300F8041357D6010E091C
:1044D00033692701130818C0B70780003367F90054
:1044E00093183600B38404418145BD4733C83A016F
:1044F00063E4871A97670000938747920A043E9403
:1045000010403E9602863367C9009384148063127C
:1045100007101364240081488945C1BF1306F07F4A
:1045200081470147B207F25062545206B1837E08B8
:10453000D18FB3E70701D2544259B259225A925A45
:10454000025BF24B3A85BE852161828001481306E9
:10455000F07FB70708000147F1B73367C9004DC7BF
:10456000630809304A8532C4EF20604C22461307A5
:1045700055FFF547930685FF998F3319D900B35737
:10458000F60033E72701B318D60026959304353F8C
:104590008145A1BF336A240163030A0636C632C4CB
:1045A0006306042A2285EF2080482246B246AA8468
:1045B000130755FF754A138B84FF330AEA403314FF
:1045C0006401335A4901336A8A00331B69011305B8
:1045D000D0C0B30495400144814BF9B5336A24013E
:1045E00063180A002144014B9304F07F894B6DBD91
:1045F000228A4A8B31449304F07F8D4B75B5114468
:10460000014B8144854B4DB51364140081488545A9
:10461000E9BD136434004A878D45C1BD630A052E88
:104620008547898F9306800363DDF6320146814713
:104630000147CDBDCE868947638DF53A8D47E38727
:10464000F5F085473688E383F5FE1385F43FE3579D
:10465000A0FC93F778006396072893D63800931749
:10466000770063D80700B70700FFFD177D8F13851C
:1046700004409307E07FE3C3A7EA1316D70193171B
:104680009700B1833367D6001376F57F61BDD68678
:104690005287DA88DE8545B763614723630DEA20D8
:1046A000DA86FD145284014B9317870013D38801D7
:1046B0003363F300935E0301B357D403131F030165
:1046C000135F0F0193D50601139E88003374D40342
:1046D0003307FF024204C18D63FBE5009A95138600
:1046E000F7FF63EE652663FCE526F9179A95998D29
:1046F00033D7D503C206C182B3F5D5033306EF0223
:10470000C205D58D63FBC5009A959306F7FF63E656
:10471000652463F4C52479179A95C20741645D8FB7
:104720009307F4FF3375F70093580701935F0E0169
:10473000B377FE00B302F502B386C540B383F80237
:1047400093D502013386AF021E962E963385F80369
:10475000637376002295C168FD1893550601337680
:1047600016014206B3F81201AA95469663E6B61200
:104770006382B6123306CB408D8E333BCB00338B36
:1047800066411385F43F630C6317B358DB039355FD
:104790000601337BDB03B3061F03420B33EB6501DA
:1047A000637BDB001A9B9385F8FF636D6B20637B53
:1047B000DB20F9181A9B330BDB40B356DB034206B0
:1047C0004182337BDB03330FDF02420B336666012A
:1047D000637BE6011A969385F6FF6367661E637531
:1047E000E61FF9161A96C208B3E8D8009395080197
:1047F00093D20801C181B38EF5023306E641B38539
:10480000BF0293D60E01B387F202BE95AE96B38F68
:104810005F0263F4F600C167BE9FC165FD1593D7C3
:104820000601ED8EC206B3FEBE00BE9FF696637F04
:10483000F6091A969387F8FF6369661A6368F61992
:10484000630FF61BBE8893E8180011B54A85EF2068
:10485000001E13075501F145930405022246B24696
:10486000E3DAE5D4130485FF331A8900014B85B3DD
:10487000328532C4EF20A01B13075501F146AA87E9
:10488000224613050502E3D6E6CEE1173317F600FC
:104890008148E5B9E370CBEE729B3335CB011A95B5
:1048A000AA961305F7FF6378D30263E6B610638216
:1048B000D5102A87C1B5E3651BDF93551B009316FE
:1048C000FA0113541A00CD8E7E0BF9BBE31DF6F7E7
:1048D000E38F06D6B9BFE31ED3FCE378CBFD2A876E
:1048E00051BD93F7F8009146E389D7D693B7C8FF37
:1048F0009386480093C717008D823E978DB38146FB
:104900008547E34CA0FEFD58E31C05D0930410C07E
:1049100085471385E441B316A70033D6F8003395D5
:10492000A800D18E3335A000C98E13F67600335718
:10493000F70001CE93F7F60011466388C70093870E
:104940004600B3B6D7003697BE869317870063D864
:104950000704054681470147F1B636877DBBB2871C
:1049600079B3FD46E3D7F6FA0556098E93060002A1
:104970003356C7006388D7009387E443B317F70023
:10498000B3E8F800B3361001D18E13F676008147F4
:1049900001CE93F7F60011460147E392C7FA931749
:1049A00097001316D701B18313D73600518F0146F4
:1049B00095BEE370CBF0729B3335CB011A95791716
:1049C000AA964DBBAE88C5BBAE8631BD93171E00FF
:1049D00033BEC70172931A96F9183E8EE315F6E7B7
:1049E000E307DEC693E818009DB1BE88E30AF6FF30
:1049F00099BD36881306F07F8147014725B6E367E6
:104A0000DEFCBE88E310DEFE99B113D74501B7077F
:104A10001000FD1713D846011377F77F9308F07F36
:104A200033FEB700AA8EF58FFD81328F1378F87FA1
:104A3000FD82630B17010543630618016314070128
:104A4000630DFE001A858280B368AE000543E39BC8
:104A500008FEE319E8FED18FF5F70543E394EEFF76
:104A60000143E381D5FE054371FF3365AE00333367
:104A7000A000C9BF13D74501B7071000FD1713D811
:104A800046011377F77F9308F07F33F3B7002A8E40
:104A9000F58FFD81B28E1378F87FFD8263081703CE
:104AA000630018030DEBB368A300631408005D8E68
:104AB00029CA638508046388D502054595ED82807F
:104AC000B3E8C700E38008FE795582803365A30010
:104AD00065FD630CE802631408005D8E79DEE39ED9
:104AE000D5FCE34CE8FC63480701E3E867FC63039B
:104AF000F302637FF30081E57D558280F5DE054595
:104B000082800145E39B08FA82805D8E69DA6DBF81
:104B100001458280E3E3CEFB0145E372DEFBE5F174
:104B2000E1BF13D74501B7071000FD1713D84601A1
:104B30001377F77F9308F07F33FEB700AA8EF58FC7
:104B4000FD81328F1378F87FFD82630E1703630DAA
:104B5000180129E3B368AE00631F08005D8E01EE03
:104B60000143638C080421A8B3E8C7000943639696
:104B700008046DD305A0638408046385D50205434A
:104B80008DCD7D531DA8B368AE000943639708021D
:104B9000630AE802631408005D8E75D2E391D5FEC6
:104BA000E34FE8FC63490701E3EBC7FD630FFE0039
:104BB00001436374FE00F1D505431A858280EDFE42
:104BC0007D53E5BF5D8E79DACDBFE36ADFFB01433C
:104BD000E3F5EEFFF5F175B739714AD813D9450100
:104BE0004ED652D456D29399C50006DE22DC26DA80
:104BF0005AD05ECE1379F97F2A8A93D9C90093DA05
:104C0000F501630D090E9307F07F6306F91813543D
:104C1000D5018E09B36934013704800033E489007B
:104C200093143500130919C08149814B13D74601EC
:104C3000139AC6001377F77FB285135ACA0013DBA5
:104C4000F601630B07109307F07F6303F704935794
:104C5000D6010E0A33EA4701130717C0B7078000D1
:104C6000B367FA00931536003A99814833C76A0151
:104C7000BD463A851308190063E836171756000039
:104C80001306C61D8A09B29983A60900B2968286C8
:104C9000B367CA001309F97F6399071293E92900E2
:104CA00081458948E1B701479307F07F3704080041
:104CB00081443204D20731807E075D8C598CA285F5
:104CC000F250625426854259D254B259225A925A0D
:104CD000025BF24B216182805A853E84AE84C68B92
:104CE0008947638DFB0E8D47E38FFBFA85472A8743
:104CF000639EFB3881470144814465BF33E4A900CA
:104D000061C036C632C4638C092A4E85EF1030521A
:104D10002246B246AA87130755FF7544938487FF3E
:104D2000198CB399990033548A0033643401B31455
:104D30009A0013D746011309D0C0139AC6001377FF
:104D4000F77F3309F9408149814BB285135ACA0074
:104D500013DBF601E31907EEB367CA00B1C7630FAF
:104D60000A22528532C4EF10904C22462A879306BD
:104D700055FFF547930587FF958F331ABA00B35750
:104D8000F600B3E74701B315B6003309E94013094C
:104D9000D9C08148E1BD33E4A90001ECA1498144B7
:104DA0001309F07F894B59B593E91900814585486E
:104DB00075BD4E84AA84B1491309F07F8D4BBDB5F2
:104DC000914981440149854B95B593E93900D287D2
:104DD0008D4869BD89475685E397FBF02A8793077D
:104DE000F07F01448144F1B5C16E1386FEFF93D676
:104DF000040113DE0501F18CF18D338695023383B6
:104E0000B6029358060133059E021A95AA98B382FA
:104E1000C60363F36800F692C16F1383FFFF33F597
:104E2000670093D30701B3F76800C20733736600C6
:104E30003E933306950293D80801B387A602135F09
:104E40000601B3849302BE94FA94B38E760263F3A0
:104E5000F400FE9E416A9307FAFF935F0401B37664
:104E6000F400B3F9F4007D8EC1803384D502C20909
:104E7000338FD401B299CE98B307DE02935E04015A
:104E8000B385BF02AE97BE9E330EFE0363F3BE0032
:104E9000529EC1679385F7FF33F6BE006D8C4206C4
:104EA000229693DE0E01B305D502769E3385AF02BE
:104EB00013D40501B386D302AA96A296B38FF30347
:104EC00063F3A600BE9F41657D15B3F7A600C20738
:104ED0006D8DAA97B3855800B3B93501FA97B2958D
:104EE0003384370133B6C500B30EC4013385CE0019
:104EF00033343401B3B7E701C18F33BECE0113D4CD
:104F000006013336C5003E943366CE009394950077
:104F100032947E94B3E46400260493567501B3344E
:104F20009000DD8193179500CD8C558CDD8C931707
:104F3000740063DB070093D7140085889316F4018F
:104F4000DD8CD58C058042899307F93F6359F008C1
:104F500093F6740081CE93F6F40011466388C60080
:104F600093864400B3B496002694B68493167400D6
:104F700063D80600B70700FFFD177D8C9307094033
:104F80009306E07F63CFF60E93D634009314D401DA
:104F90002604D58C318093F7F77F21BB328532C44C
:104FA000EF10F02893065501F1471307050222463A
:104FB000E3D1D7DC6115B317A6008145F9B3EF1033
:104FC000102713075501F145930705022246B24603
:104FD000E3D5E5D461153314AA00814499BB854615
:104FE0009D8EB1E71309E941B3972401B3D4D400EE
:104FF00033192401B337F000B3649900DD8C93F7C3
:105000007400B356D40081CF93F7F400114663883F
:10501000C70093874400B3B49700A696BE849397C5
:10502000860063D8070485470144814459B11306BB
:105030008003E341D6CC7D46E356D6FA0556B30746
:10504000F640930500023356F4006387B600130957
:10505000E943B3172401DD8CB3349000D18C93F66F
:105060007400014499CA93F7F40011468146E39213
:10507000C7FA139496003180F6068D80D58C81474F
:105080000DB99307F07F0144814425B142896DBD7C
:10509000370710007D1701113373B70093D846010D
:1050A000758F935ED60122CC26CA0E0393D4450198
:1050B0009357D5010E0706CE4AC84EC693F8F87F1F
:1050C000130EF07F33E7EE0093F4F47F13D4F50171
:1050D00033E36700131F3500FD82931E36006380A3
:1050E000C81993C61600B38514416305D4126351E1
:1050F000B018638B081AB70780005D8F6381C459AD
:105100009307800363C4B734FD4763C5B74893076B
:1051100000028D8FB3D9BE003318F700B39EFE0096
:10512000336838013357B700B339D00133683801D9
:105130003303E340B3090F41B3373F013306F34074
:105140009317860063D30724370980007D193379CC
:105150002601630F092C4A85EF10700D130785FF98
:1051600093070002998FB3D7F9003316E900D18F66
:10517000B399E9006344972A058F13061700FD468B
:1051800063C5C63A13070002118FB3D6C90033981E
:10519000E9003397E700558F33380001B369070101
:1051A00033D6C700814493F7790081CF93F6F90095
:1051B00091476388F6009386490033B836014296DA
:1051C000B6899317860063D6071C138714009307CC
:1051D000F07F05886306F720B70780FFFD17F18F82
:1051E0001398D70193D93900A60733683801B183E2
:1051F0001377F77F9396C7005207B1827E04D98E4A
:10520000C18EF2406244D2444249B2494285B685D9
:10521000056182806356B00A638A0812B70780006E
:105220005D8F6387C42D9307800363C7B718FD475D
:1052300063D2B73C138805FE93070002B3590701F8
:10524000638AF50093070004B385B7403317B700AE
:10525000B3EEEE003338D0013368380195A2B3675E
:10526000D7019385148099E393C61600630AD4048A
:10527000D1E19387140093F7E77F6399071EB36723
:10528000E3013368D701639204166382073C631617
:105290000842131835009316D3011358380033E829
:1052A00006019357330019A2B367D7016385071A24
:1052B0009387F5FF638B073A638CC523BE8589B559
:1052C0006399051C9386140093F7E67FC1EFB367DB
:1052D000E30163900436638D0744B367D701639499
:1052E00007460E051318D3010D813368A8009357A4
:1052F00033006DA8B385984063970420B367E3013A
:10530000638D07309387F5FF638907401305F07FAE
:105310006383A520BE859307800363C2B72AFD4738
:1053200063C8B73C930700028D8F3318F3003356E0
:10533000BF00B317FF003368C800B339F000335320
:10534000B3003368380133076740B5ACB367D701A2
:10535000638307109387F5FF638F071E6380C52F54
:10536000BE85D1B59307F07F638BF606FA9E33B600
:10537000EE01B307E300B2971398F70193DE1E0026
:10538000B369D80113D61700B68493F77900E39F69
:1053900007E09317D60113D839003368F800A685C3
:1053A000935736001307F07F6380E506B207B18399
:1053B00013F7F57F05883DBD3367D7013338E0002B
:1053C000B309E801B3B7E901338667009317860094
:1053D000E3DD07FA85049307F07F639CF4180588E2
:1053E0001307F07F8147014831B5639107106301CE
:1053F000083C131836009317D70113583800336848
:10540000F800368493573700B367F800E9DB0144AE
:105410001307F07FB70708000148E9BB370680FF94
:105420007D167D8E93F77900998CE39107D895B717
:105430004E85EF10C05F13078501FD47E3D2E7D229
:10544000130685FFB397C90081492DB33368D7018F
:1054500033380001C5B1131835009317D301135821
:1054600038003368F800935733002DBFB309DF418C
:105470003309E34033363F013309C94093178900AC
:1054800063CA072033E82901E31508CC81470144AA
:1054900031BFB385984063810414B7068000930739
:1054A000F07F3363D3006381F8209307800363CCDC
:1054B000B722FD4763C9B72C930700028D8F3318BD
:1054C000F300B356BF00B317FF003368D800B339F9
:1054D000F0003353B300336838011A97B309D80189
:1054E000B3B7D9013386E700C684CDB5E31108F21E
:1054F000131835009317D301135838003368F80098
:105500009357330011B7370580009307F07F33635B
:10551000A300E392F8E00E061318D7010D8233685A
:10552000C800935737003684C5B5051793060002A7
:1055300033D7E700630AD600930600043386C640DB
:105540003396C700B3E9C90033383001B369E800C6
:10555000014681441DBDB309DF01B307E30033BF3A
:10556000E9013386E701931786008544E3DF07E00E
:105570008944B70780FFFD17F18F13D7190013F87F
:105580001900336807019399F701B3E9090113D6AC
:10559000170011B9138805FE93070002B3590701DC
:1055A000638AF50093070004B385B7403317B7004B
:1055B000B3EEEE003338D00133683801A5BE336353
:1055C000E30133386000B3890E41B3B73E013306BF
:1055D000F740C6843684ADB6B367E3016387071826
:1055E0009387F5FF638C071C9306F07F638ED50AC3
:1055F000BE8565BD930700028D8FB3D9BE003318F9
:10560000F700B39EFE00336838013357B700B33953
:10561000D001336838013A9365B3131836009317F5
:10562000D7011358380033E8070136849357370001
:1056300095BBBDCB3367D701E31B07DC0E05131801
:10564000D3010D813368A8009357330075BBE30F76
:1056500008E2131836009317D7011358380033683F
:10566000F80036849357370091B3B309DF41B3078D
:10567000E340333F3F013386E7418544D1B41318FB
:1056800035009316D3011358380033E806019357B9
:1056900033009DBBB389EE413306674033B93E0109
:1056A00033092641368475B40E061318D7010D82CE
:1056B0003368C8009357370081BBB309DF41B30794
:1056C000E34033363F013386C7409317860063D7E4
:1056D000070AB389EE41B3076740B3BE3E01338684
:1056E000D7413684C9B43363E30133386000FDB376
:1056F000138805FE93070002B3590301638AF5007E
:1057000093070004B385B7403313B300336F6F00C2
:105710003338E001336838017DB5B389EE41B30712
:105720006740B3BE3E013386D7413684854409BC09
:10573000131836009317D701135838003368F80050
:1057400093573700A5B1B309DF01B307E30033BFB7
:10575000E9013386E70193178600E3D807C2B7074C
:1057600080FFFD177D8E85440DB10E061318D701FD
:105770000D823368C800935737002DB133E8C90054
:10578000E30608D019B1138805FE93070002B35948
:105790000301638AF50093070004B385B740331310
:1057A000B300336F6F003338E001336838013DB325
:1057B00001441307F07FB70708002DBCB309DF01D0
:1057C000B307E300B3BED9013386D70169BB13D752
:1057D0004501B7071000FD171347F7FF13D846011F
:1057E000FD8DF58F931657011378F87F99CA13072B
:1057F000F07F01456303E8008280D18F3335F000EC
:105800008280C98D0545E5D58280411106C622C436
:1058100026C20DCD9357F541B3C4A7009D8C2A84B1
:105820002685EF10C0209306E041898EA9477D8030
:1058300093F6F67F63CDA7022D47098FB3D7E40017
:105840005505B207B394A400B18329A00144814651
:1058500081478144B207D206B1837E04D58FC18FC0
:10586000B24022442685BE8592444101828055156E
:10587000B397A400B207B1838144E9BF1DCD4111A4
:1058800022C406C62A84EF10801A9306E041898E4E
:10589000A94793F6F67F63DCA7025515B317A4005A
:1058A000B207B1830147B2402244B207D206B183A6
:1058B000D58F3A85BE854101828081478146B207F6
:1058C000D206B1830147D58F3A85BE8582802D47A8
:1058D000098FB357E400B207130755013317E400EB
:1058E000B183D1B74111370780007D1713D87501F7
:1058F00026C2935475013373A70093F4F40FB37663
:10590000B7004AC01378F80F1359F50106C622C430
:10591000FD819A8726854A86131E3300939E3600A2
:10592000B3880441630AB90E6350100D6304081470
:105930009307F00F638BF414B7070004B3EEFE0077
:10594000ED4763C1172993070002B3871741B39747
:10595000FE00B3D81E01B337F000B3E7F800B30779
:10596000FE4013975700635E0718370400047D1448
:105970007D8C2285EF10A00B6D15B317A400634832
:10598000951A058D1304150013070002018F339734
:10599000E7003337E000B3D78700D98F814413F78E
:1059A000770019C713F7F70091466303D7009107F3
:1059B00013975700635B071485041307F00F4A869B
:1059C0006383E4169A07A58313F5F40FB2402244CB
:1059D000A6079314750113D59700458D7E06924452
:1059E0000249518D410182806399080A138714008E
:1059F0001377E70F6317071463900422630D0E1EDD
:105A0000E3860EFCB307DE4113975700635007226D
:105A1000B387CE412E8961B7635C100B630E080813
:105A20009307F00F6383F406B7070004B3EEFE009C
:105A3000ED4763C9171F93070002B3871741B39758
:105A4000FE00B3D81E01B337F000B3E7F800F297B9
:105A5000139757006357070A85041307F00F6384F1
:105A6000E40CB706007E13D71700FD16858B758FE3
:105A7000D98F35B7638D0E08FD18B307DE41E38279
:105A800008EE9307F00FE39DF4EA630D0308014667
:105A90001305F00FB707400015BF33079840EDE836
:105AA00063020E147D17630807189307F00F63193C
:105AB000F80E2E893683D1BF638B0E04FD18B30711
:105AC000DE01E38708F89307F00FE393F4F675BF60
:105AD00063950808850413F7E40F6313071263172F
