:040000006F007073AA
:1000040000000000000000007204000074040000FE
:1000140000000000340F0000000000000000000099
:10002400340F0000340F0000000000000000000046
:10003400340F000000000000340F00000000000036
:10004400340F0000340F0000340F0000340F0000A0
:10005400340F0000340F0000340F0000340F000090
:10006400340F0000340F0000340F0000340F000080
:10007400340F0000340F0000340F0000340F000070
:10008400340F0000340F0000340F0000340F000060
:10009400340F0000340F0000340F0000340F000050
:1000A400340F0000340F0000340F0000340F000040
:1000B400340F0000340F0000340F0000340F000030
:1000C400340F0000340F0000340F0000340F000020
:1000D400340F0000340F0000340F0000F40B000054
:1000E400340F0000340F0000340F0000340F000000
:1000F400340F0000340F0000340F0000340F0000F0
:1001040000000000340F0000340F0000340F000022
:10011400340F0000340F0000340F0000340F0000CF
:10012400340F0000340F0000340F0000340F0000BF
:10013400340F0000340F0000340F0000340F0000AF
:10014400340F0000340F0000340F0000340F00009F
:10015400340F0000340F0000340F0000340F00008F
:10016400340F0000460B0000340F0000340F000071
:10017400340F0000340F0000340F0000340F00006F
:10018400340F0000340F0000340F0000340F00005F
:10019400340F0000340F0000340F0000340F00004F
:1001A400000000000000000000000000000000004B
:0C01B4000000000000000000000000003F
:1001C000397101436EC619A0397141536AC866CAB4
:1001D00062CC5ECE19A0397101535AD056D252D496
:1001E0004ED64AD826DA22DC06DE3301614082820E
:1001F00041114AC026C222C406C68282B24D4101C4
:10020000024D924C224CB24B4101024B924A224A7F
:10021000B2494101024992442244B24041018280E4
:100220003D432A876373C3029377F700BDEFADE5C3
:10023000937606FF3D8ABA960CC34CC30CC74CC7D5
:100240004107E36BD7FE11E28280B306C3408A0602
:100250009702000096966780A6002307B700A306C2
:10026000B7002306B700A305B7002305B700A30412
:10027000B7002304B700A303B7002303B700A3020A
:10028000B7002302B700A301B7002301B700A30002
:10029000B7002300B700828093F5F50F9396850091
:1002A000D58D93960501D58D61B79396270097025A
:1002B000000096968682E78086FA9680C1171D8F89
:1002C0003E96E374C3F8A5B7EFF29FEFB77700004F
:1002D00005693764002003AC47B2138B8183930414
:1002E00009C013048413938A81834111A2941309D2
:1002F00089D4014A93898183930B0B600840E2857E
:10030000EF10D046EF10906F2390AA00DA879A235F
:10031000BA8663734701D286139A0601135A0A01FB
:10032000BA866373E900CA861399060189071359CF
:100330000901E39EFBFC1104890AE39184FC8567B3
:10034000330A2A419387279E33CA4703371B00206D
:10035000B70C0020130C8BA28144130B8BA29306C5
:10036000000A1308400C130700409308600C29434F
:10037000938C0C00420A135A0A0133840403814A05
:10038000B38DD40242044180137DC43FB30BA74117
:100390002980C20B160493DB0B017D04C20D93DD93
:1003A0000D0113950A014181B3071503B385AD0013
:1003B000C205C181DA9542C636C446C23AC0C207F8
:1003C000C18393FEE73FA983B307F440C207C1830B
:1003D000138F0702060F4E9F835F0F00139F1700B6
:1003E0004E9F3306D741035F0F0042064182B38F11
:1003F000CF023306CF02138FF7FF060FFD074E9F84
:100400008607035F0F00CE979E23330FDF03B3876A
:10041000D703B38FAF0333067603330F7F037E9684
:10042000B387A7037A96B297D187B3872741B3875B
:100430004703B3C767029CA1B3075C019C23A68551
:10044000850A8607E69792239129130E000A29430D
:1004500002479248A2463248E395CAF58504C20491
:10046000C18093078007130C0C0AE398F4F0410154
:1004700071B301A0EF10205CAA8537750000130549
:1004800085B2EF207023EF10605BAA8537750000FE
:10049000130585B3EF205022EF10A05AAA853775B7
:1004A0000000130585B4EF20302101A0135785000B
:1004B000B707026098A31375F50F88A38280B7076A
:1004C00002609C23411193F7F70FDC878887410175
:1004D0008280EFF25FD019711306C0038145C80016
:1004E000130AC10002C002C202C41D3B714681450D
:1004F00052853D3393098102714681454E850D3306
:10050000854513050010EF10200B85451305800667
:10051000EF10600CB7140140F1770D4461499387E7
:1005200037038A85138504407C804AC422C2EF00C9
:10053000305237250140930700788A8513050580DE
:100540007C804AC422C2EF00B05085678A8513853B
:1005500004407C804AC422C2EF00904F93070008F9
:100560007C808A85C147138504403EC422C2EF00C7
:10057000304E9305000813850440EF00B0598547BD
:100580003EC6BD473ECA8567BED4C8009167BED887
:1005900022D8D2DCCEDE02C802CC02CE02D002D2F9
:1005A00002D402D602DA02DC02DE82C082C282C437
:1005B00082C682C882CA82CE82CC82D082D282D6C1
:1005C00082DAEF00303C85450145EF009046096135
:1005D0002DB9EFF2FFC1797137340140E884EC8224
:1005E000130504C04C0832C6231D0100231B010063
:1005F000EF1020023246930700063ED00C109147C0
:10060000130504C02312F1022313C10223150102B2
:10061000EF10C00A130504C08545EF1080161305BE
:1006200004C08145EF10E018130504C08545EF10A4
:10063000A0168545130504C0EF1020134561D9BEEF
:10064000EFF21FBB05654111854513058580EF005D
:10065000907891677C8237150140E1474C003EC697
:10066000130505C08D473EC4EF00903E13054006BC
:10067000EF10802D130620039305F00813054006A4
:10068000893F410141BEB70702601307A002A38F53
:10069000E7FE1357850098A31375F50F88A313572A
:1006A000860098A31376F60F90A31307B002A38FCA
:1006B000E7FE13D7850098A393F5F50F8CA313D706
:1006C000860098A393F6F60F94A31307C002A38F96
:1006D000E7FE8280EFF2DFB19306F00E93548500BF
:1006E0001374F50F1306F00E81450145693F13079A
:1006F000000FB70602609307000FFD1784A2C20720
:1007000080A2C183FDFB7D17420741836DF719B6B7
:10071000EFF21FAE3537753B370402609147A30FE8
:10072000F4FE713B693B613B93140501C180A20457
:10073000C2047133C180458D9315050137750000E2
:10074000C181130585B5EF20207713052003EF1035
:10075000A01F93076003A30FF4FE230004001306F9
:10076000A003A30FC4FE95471CA0930720FBA30F73
:10077000F4FEB14614A014A0230004009307300334
:100780001CA01CA0130770FBA30FE4FE23000400B1
:100790001307B0FBA30FE4FE1303F0032300640070
:1007A000130700FCA30FE4FE1307C00218A01307F1
:1007B00020FCA30FE4FE054718A0130730FCA30F8D
:1007C000E4FEB54823001401130740FCA30FE4FE28
:1007D0001307000218A0130760FCA30FE4FE0D47E7
:1007E00018A0930500FDA30FB4FE930540FA0CA0DA
:1007F000930510FA0CA08155A30FB4FE41582300B5
:10080000040118A0A5450CA018A0414518A0930507
:10081000D00208A00CA01307300418A02300640025
:100820001CA023001401394718A09304900204A0CF
:1008300093082003230014018558A30F14FF2300FD
:10084000040114A008A018A018A0294718A00CA003
:100850001CA0930750041CA010A0D1471CA0E54782
:100860001CA0930710031CA0930770031CA0930700
:100870001002A30FF4FEC547A30FF4FE13054006B4
:10088000EF10800C0145B93537150140916513050E
:1008900005C0EF00F027A30F94FEADBAEFF25F950D
:1008A0003284AE862A86C53322850931A5B2EFF29D
:1008B0003F94797185453705040002CA02CC02CE07
:1008C00002D002D202D402D602C602C8EF00905271
:1008D000854513051002EF001050370514008545BB
:1008E00013050503EF00502393070010FC82371413
:1008F00001408D473ECC4C08E147130504403ECEF5
:10090000EF00101593070020FC824C089307800429
:10091000130504403ECEEF00B013F167375400409A
:10092000938707203ED00C10B7070C0013050480F6
:100930003ED402D223160102EF001069054693054A
:10094000505213050480EF007072930770137C8679
:1009500085475C87680085473EC8EF00B02985451C
:1009600013050480EF00306F45616FF0BF8AEFF22E
:100970003F88797185450945EF00104437040240EE
:100980001305044C8125B727004091073EC2B75795
:100990000020938787523EC4930780603EC8930728
:1009A00000083ECC4C008D671305044C3ED402C6B3
:1009B00002CA02CE02D002D202D6EF0060774561B1
:1009C0006FF05F85EFF2DF827971854513050010C6
:1009D00002CA02CC02CE02D002D202D402D602C691
:1009E00002C8EF003041854513051004EF00B03E0A
:1009F00037053880854513050520EF00F011E177B4
:100A000037250140FC824C089307800413050580BC
:100A10003ECEEF00F003F167938707203ED00C1025
:100A2000B7070400372500403ED402D22316010246
:100A3000EF009059854537250040EF00D0619307BE
:100A400090157C8685475C87680085473EC8EF0027
:100A5000701A05469305404237250040EF001061AB
:100A60003705024085451305054CFD2D05469305C8
:100A7000000437250040EF00D06245616FF08FF928
:100A8000EFF28FF40945EF009016B52EEF003069B4
:100A9000716513050520EF00906E9D391305200345
:100AA000EF00906AE9352135313FB777000003A99F
:100AB00007B983A947B937640020130404B3376B1F
:100AC0000020B77B000083D601829387018205470F
:100AD0006390E6002390070001478147930660601A
:100AE0003306E40010220507B297C207C183E31959
:100AF000D7FE83566460239CF18013978600A18201
:100B0000558F42074183639DE702A284130C8B1328
:100B1000930C0460DC20C8308904A2075D8DEF10BF
:100B2000E03D4A86CE86EF003072EF1080722320BF
:100B3000AC00110CE3909CFE13858BB9EF2060494B
:100B4000EFF08FF849B74111930540423725004037
:100B500022C626C44AC24EC0EF0070578547631CA8
:100B6000F506930540422A8937250040EF00F059E9
:100B7000B72700409A23B7040240DE23814513853E
:100B8000044CDD231385044CD52B13048060098CA1
:100B9000420441809309806037750000A28523A23A
:100BA000344D130545B6EF20203137650020B75589
:100BB0000020631934031306806093858552130562
:100BC00005B3EF1090062390218337050240854539
:100BD0001305054C512B3244A2441249824941016C
:100BE0007300203013868552130505B38145EFF05D
:100BF0002FE3E1BF411122C6375400409305505204
:100C00001305048026C44AC2EF00704C29C11305A5
:100C10000480EF00B04A9384C1819C401377F50FA4
:100C20009386C1819DEB9307A005631DF70CB777F1
:100C30000020238CE7D22391E18285479CC0375561
:100C400000409305505213050580EF00104C3244CC
:100C5000A244124941017300203005466393C70244
:100C60009307A0056310F70A89479CC0B777002057
:100C7000A38CE7D2938721829A231307A7059AA30F
:100C80007DBF1386E7FF9305506063EDC50637749B
:100C90000020130484D393861700A29798A394C0CE
:100CA0009307606063CAD700938721829A231375E4
:100CB000F50F3A958AA361B793078060E391F6F840
:100CC000138921828346746003466460835509005A
:100CD00037750000130505B7EF20001E83576460C9
:100CE00023A0040013978700A1835D8F8357090019
:100CF00042074183998F93B717002382F182231013
:100D0000090035BF2391018223A006000DBFB7174C
:100D100002409843B706FFF041111367170098C3CC
:100D2000D84337060200758FD8C39843B706F7FE3D
:100D3000FD16758F98C39843B706FCFFFD16758F97
:100D400098C3D843B70601FFFD16758FD8C39843E3
:100D5000B70600ECFD16758F98C33707FF0098C7DC
:100D600023A6070202C402C69843C166558F98C3E2
:100D7000B716024005679C42F18F3EC6A247850721
:100D80003EC4B24781E7A247E397E7FEB7170240A8
:100D90009C431397E7006356070685473EC63247D4
:100DA0008547631EF704B7170240D843B706C1FF53
:100DB000FD16D8C3D843D8C3D84313670740D8C358
:100DC000D843758FD8C3D843C166558FD8C39843CD
:100DD000B7060001558F98C3984393166700E3DD6B
:100DE00006FED843B7160240719BD8C3D843136799
:100DF0002700D8C32147DC42B18BE39EE7FE4101C7
:100E0000828002C669BFB7160240D842B7070020E9
:100E10001146318B9387073F6305C700214663085E
:100E2000C70237177A001307072098C33717024005
:100E3000584311839376F7003707002013070720E4
:100E40003697142398433357D70098C38280D842EB
:100E5000D442416649833D8BF18E1306270015CF9E
:100E60003D47630FE6024147630FE6024547814570
:100E70006313E6004146A1E237470240032707809B
:100E8000418B0DC737177A00130707203306C702B7
:100E900090C3C9DD9843058349BF81454946E1BFF9
:100EA00085453546C9BF81453D46F1B737173D00F9
:100EB00013070790E1BF3715024058559316F70006
:100EC000585563DF060411833D8B930617003717CF
:100ED0007A00130707203357D70298C35455A182CD
:100EE000BD8A8DE295463307D702058398C337172D
:100EF0000240585794433D8B050733D7E60298C309
:100F0000984369B705456394A600E546E9BF3D45AA
:100F10006396A600D1463387E602C9BF8906E5BFBE
:100F20003D8B9306170037177A00130707203357B6
:100F3000D702F1B701A0970100209381A1CB17F14F
:100F400001201301210C176500001305E51397F527
:100F5000FF1F9385250B1386818163FAC5008322C9
:100F6000050023A0550011059105E3EAC5FE138590
:100F70008181976500209385253D6377B500232007
:100F800005001105E36DB5FEFD42739002BCAD4254
:100F900073904280B762000093828208739002309F
:100FA00097F2FFFF9382420693E232007390523031
:100FB000EFF0FFD5970200009382C2AC7390123419
:100FC000730020301C4141677917F98F1CC1232021
:100FD00005002322050023240500B707024023262D
:100FE0000500138787006317E500D8431367F700F0
:100FF000D8C382801387C7016316E500D8431367FF
:10100000070FFDB7138707036318E500D84385660C
:10101000938606F0558FE9BF138747046315E500F3
:10102000D843BD66C5BF138787056316E500D8435F
:10103000B7060F00C5B71387C7066316E500D84388
:10104000B706F000C1BF138707086316E500D84351
:10105000B706000FC1B7138787406319E50003A7E0
:1010600047401367F70023A2E74082801387C741F8
:101070006317E50003A747401367070FEDB7938792
:101080000743631BF500B707024003A74740856687
:10109000938606F0558FC1BFB707024013874744B8
:1010A0006316E50003A74740BD66EDB71387874584
:1010B0006317E50003A74740B7060F00E1BF13879A
:1010C000C7466317E50003A74740B706F000D9B746
:1010D000138707486317E50003A74740B706000FCB
:1010E00055BF138707496319E50003A7474D1367E9
:1010F000F70023AAE74C82801387074A6317E500AD
:1011000003A7474D1367070FEDB71387074B631905
:10111000E50003A7474D8566938606F0558FD1BF3E
:101120001387074CE319E5FC03A7474DBD66FDB7E0
:101130001C4161773D0794517D8F9C45D58F944923
:10114000D58FD449D58F944DD58FD44DD58FD451CB
:10115000D58F9455D58FD98F1CC1DC455CC19C417E
:101160001CC5DC415CC582801C4189C593E7170022
:101170001CC1828041677917F98FDDBF4841420564
:101180004181828014455C4158450328C502D58FB2
:10119000D98F1849370600A0D98F5849D98F184DD3
:1011A000D98F584DD98F1851D98F5851D98F18557B
:1011B000D98F1859B3E70701D98F18410A073A9612
:1011C0001CC2A1476396F6001C4293E707041CC2A9
:1011D00054598C4E9C42CD8FCC429205CD8F8C467B
:1011E000A205CD8FCC46C205CD8F8C4AD44AD205FC
:1011F000CD8FE206D58F5CC291676313F802145D50
:10120000904E9C42D18FD04294461206A206D18FB6
:10121000D58FB70600A09386461036971CC38280F0
:10122000B70700A0938747103E97B7070010FD1738
:10123000F5B7B70700A00A053E951C4189C593E79D
:1012400017001CC18280370710007917F98FD5BFAE
:101250009C4513F7070113F8F70001C7D84133681D
:10126000E8008E2113F7F50F39C318418146854EEA
:101270003D4F930F800293028004214E3396DE008F
:10128000B3F8C500631116039398260033131F01AA
:101290001343F3FF3377E300B318180133E7E80093
:1012A000639FF70550C98506E39AC6FD18C1130769
:1012B000F00F6375B70454412146854E3D4F930F9F
:1012C000800293028004414EB398CE0033F715019B
:1012D0006392E8021317260001173313EF0013433C
:1012E000F3FFB376D3003317E800D98E639DF7017F
:1012F000232A15010506E319C6FD54C18280E39433
:1013000057FA10C94DB7E39757FE23281501DDB7EB
:101310000CC982804CC98280B7070140635A05041A
:10132000DC4F93560501131805013707300013F6FB
:10133000F60013580801B376E50063500506639B79
:10134000E602930606010D46B316D60093C6F6FFD5
:10135000F58F99C9135755011377F73F12073317C4
:10136000E800D98F63570504370701405CCF8280BE
:10137000DC4345BF1317B500635607008D46B3968F
:10138000C600E9B7135755011377F73F1207331714
:10139000E8001347F7FFF98F6DBF6390E602370649
:1013A00001405442370700F17D17F98F758F58C2FD
:1013B000D5F1370701405CC382801317B500635C29
:1013C00007008D46B396C60093C6F6FFFD8EB7079D
:1013D000000FD58FF1BF1357550112073317E800DF
:1013E0001347F7FF7D8FB707000FD98FD1B723A41D
:1013F000A182828003A78182894710216311F702AD
:1014000014318D4763EDD7003C219A0637E700E0A1
:101410009607D58F93F7F70F32972300F740544183
:101420000547935756003317C70089CA93870704A7
:101430008A07B7E600E0B69798C3828093870706CD
:10144000C5BF371702405C439146B18B6385D70017
:10145000A1466382D706B7177A00938707201CC17D
:10146000371602405C42370700201307072191839B
:10147000BD8BBA9794231C41B3D7D7005CC15442AB
:10148000A1829D8ABA969422B3D6D70014C554423D
:10149000AD829D8A36971823B3D7E7005CC55842C2
:1014A0003983937637001387418036971823B3D753
:1014B000E7021CC982805C435843C166C983758FAB
:1014C000B7F6FF1F83A6C670BD8B8907139616015A
:1014D00063480600C54601466392D702C94739A84A
:1014E0008946638FD702BD46638ED702C146638E9D
:1014F000D702C54601466393D700C1471DEF374762
:10150000024003270780418B05C737177A0013076E
:101510000720B307F7021CC121D61C41858381B780
:1015200001466DBF0546B547D1BF0146BD47F9B776
:1015300037173D0013070790E9BFB7150240D8558C
:101540009316F700D85563DF060411833D8B93068D
:10155000170037177A00130707203357D70218C12F
:10156000D455A182BD8A8DE295463307D702058303
:1015700018C137170240585714413D8B050733D720
:10158000E60218C1184171B785456394B600E54677
:10159000E9BFBD456396B600D1463387E602C9BFB1
:1015A0008906E5BF3D8B9306170037177A001307AE
:1015B00007203357D702F1B799C5371702405C4B64
:1015C0005D8D48CB8280B7170240D84B1345F5FF9D
:1015D000798DC8CB828099C5371702401C4F5D8D2D
:1015E00008CF8280B7170240984F1345F5FF798DD9
:1015F00088CF828099C5371702405C4F5D8D48CFF8
:101600008280B7170240D84F1345F5FF798DC8CFB8
:1016100082801E2137370140930607C0C207C1836D
:101620006300D504B7060040630CD50293860640DC
:101630006308D502B7160040138606806302C50210
:10164000938606C0630ED50013070740630AE500C2
:1016500037570140930607C06304D5006316E500C1
:10166000BA2193F7F7F8D98F37170040630CE500DC
:10167000130707406308E50093F7F7CFFA21C20785
:10168000C183D98F1EA1DE215EB59E211EB5B7375D
:101690000140138707C0630EE50093870740630A84
:1016A000F500B7570140138707C06304E5006314D2
:1016B000F5009C251EB985475EA982801E3165779D
:1016C0001307F7CFC207C183BD9BC207C1831EB1F9
:1016D0001E31562103D88500C20713960601162D28
:1016E000C18393F7F7FD758F96214182A206558F2E
:1016F000B62142074183B3E606019206D58FB7367D
:101700000140C207138806C0C183630E050193869A
:101710000640630AD500B7560140138806C063042B
:101720000501631ED502B62593F7F7F703D8C50068
:101730009206D58FD621C207C183920693F7F7FB95
:10174000D58FFD769386F63FF18EF225C207C183D1
:10175000336606010A06D18E13960601418252A114
:101760001AADFA211ABD1EB182801E2189C593E7E8
:1017700017001EA18280C207C183F99BC207C183E3
:10178000CDBF8357450491C52167D98F2312F50436
:101790008280C607C583DDBF1E2189C593E7070880
:1017A0001EA18280C207C18393F7F7F7C207C183E6
:1017B000C5BF1A2DFD779387F77FF98FA205CD8FCF
:1017C000C207C1831EAD8280EFE29FA21629F57782
:1017D000FD17F58FF621DA257971D58F1EA95625CB
:1017E000FD779387379FF58FD6212A842EC6D58F14
:1017F0009625D58FB625D58F5EA55E29C207C183F4
:1018000093F7F7CFD98F5EA968082539B74701400C
:1018100093870780B245631EF402A2576547B387DA
:10182000E7029841930640060A07B3D7E70233D789
:10183000D702B3F7D7021207920793872703B3D7CC
:10184000D702BD8BD98FC207C1831EA445616FE04B
:101850007F9C9257E1B791C55E250967D98F5EA538
:1018600082805A25F977FD17F98FD5BF13F7F50F49
:1018700085471583B395B7006319F7009307C50033
:10188000984301CED98D8CC3828089469307450148
:10189000E318D7FE93070501E5B793C5F5FFF98D6A
:1018A000DDB75E2901C6DD8D4EA9828093C5F5FFA7
:1018B000FD8DDDBF93F5F51F4EA182804A21137582
:1018C000F51F82800A216D8D3335A000828013F7C9
:1018D000F50F85461583B397B6006311D7025A25D5
:1018E000F98F1A2101454207418381CB0545A1812A
:1018F000B315B5006D8F3335E000828089466314DF
:10190000D7001A29F1BF5A29E1BFA1818547B397B2
:10191000B70093C7F7FFC207C1831EA18280B70734
:10192000002083A7073F37177A0013070720B3D794
:10193000E70293F7F70F2387F1821307803EB387FF
:10194000E7022396F1828280B7F700E0D843814610
:10195000799BD8C303D7C1823306A70290CBD4CBDF
:1019600098431367070198C398431367170298C3F6
:10197000D843058B75DF9843799B98C38280EFE24B
:101980003F872A841165011185451105A931930707
:1019900000207C82371501408D473EC44C00E14752
:1019A000130505803EC6EFF0BF8A22C837440140C8
:1019B000B70708000C08130504803ECC02CA231E9A
:1019C00001001935854513050480713505616FE007
:1019D0007F84EFE25F80B7440140AE8932890144E1
:1019E00093840480634524014A856FE01F82930538
:1019F00000042685C13D65DDB38789008385070026
:101A000026850504C205C1817535E9BF138781802C
:101A10001C43B7760020938646343E95636BD50011
:101A2000B70602209386068063E5A60008C33E85BC
:101A30008280FD57EDBF73251034828073252034DA
:101A4000828073253034828039714AD813D9450198
:101A50004ED652D456D29399C50006DE22DC26DA41
:101A60005AD05ECE1379F97F2A8A93D9C90093DAC6
:101A7000F501630D090E9307F07F6306F9181354FF
:101A8000D5018E09B36934013704800033E489003D
:101A900093143500130919C08149814B13D74601AE
:101AA000139AC6001377F77FB285135ACA0013DB67
:101AB000F601630B07109307F07F6303F704935756
:101AC000D6010E0A33EA4701130717C0B707800093
:101AD000B367FA00931536003A99814833C76A0113
:101AE000BD463A851308190063E8361717560000FB
:101AF0001306060B8A09B29983A60900B29682865C
:101B0000B367CA001309F97F6399071293E92900A3
:101B100081458948E1B701479307F07F3704080002
:101B200081443204D20731807E075D8C598CA285B6
:101B3000F250625426854259D254B259225A925ACE
:101B4000025BF24B216182805A853E84AE84C68B53
:101B50008947638DFB0E8D47E38FFBFA85472A8704
:101B6000639CFB3881470144814465BF33E4A9008D
:101B700061C036C632C4638B092A4E85EF0010045B
:101B80002246B246AA87130755FF7544938487FF00
:101B9000198CB399990033548A0033643401B31417
:101BA0009A0013D746011309D0C0139AC6001377C1
:101BB000F77F3309F9408149814BB285135ACA0036
:101BC00013DBF601E31907EEB367CA00B1C7630F71
:101BD0000A22528532C4EF00607E22462A8793068D
:101BE00055FFF547930587FF958F331ABA00B35712
:101BF000F600B3E74701B315B6003309E94013090E
:101C0000D9C08148E1BD33E4A90001ECA149814478
:101C10001309F07F894B59B593E91900814585482F
:101C200075BD4E84AA84B1491309F07F8D4BBDB5B3
:101C3000914981440149854B95B593E93900D28793
:101C40008D4869BD89475685E397FBF02A8793073E
:101C5000F07F01448144F1B5C16E1386FEFF93D637
:101C6000040113DE0501F18CF18D33869502338377
:101C7000B6029358060133059E021A95AA98B382BC
:101C8000C60363F36800F692C16F1383FFFF33F559
:101C9000670093D30701B3F76800C2073373660088
:101CA0003E933306950293D80801B387A602135FCB
:101CB0000601B3849302BE94FA94B38E760263F362
:101CC000F400FE9E416A9307FAFF935F0401B37626
:101CD000F400B3F9F4007D8EC1803384D502C209CB
:101CE000338FD401B299CE98B307DE02935E04011C
:101CF000B385BF02AE97BE9E330EFE0363F3BE00F4
:101D0000529EC1679385F7FF33F6BE006D8C420685
:101D1000229693DE0E01B305D502769E3385AF027F
:101D200013D40501B386D302AA96A296B38FF30308
:101D300063F3A600BE9F41657D15B3F7A600C207F9
:101D40006D8DAA97B3855800B3B93501FA97B2954E
:101D50003384370133B6C500B30EC4013385CE00DA
:101D600033343401B3B7E701C18F33BECE0113D48E
:101D700006013336C5003E943366CE009394950039
:101D800032947E94B3E46400260493567501B33410
:101D90009000DD8193179500CD8C558CDD8C9317C9
:101DA000740063DB070093D7140085889316F40151
:101DB000DD8CD58C058042899307F93F6357F00885
:101DC00093F6740081CE93F6F40011466388C60042
:101DD00093864400B3B496002694B6849316740098
:101DE00063D80600B70700FFFD177D8C93070940F5
:101DF0009306E07F63CDF60E93D634009314D4019E
:101E00002604D58C318093F7F77F21BB328532C40D
:101E1000752393065501F147130705022246E3D2C5
:101E2000D7DC6115B317A6008145C1BB412B130751
:101E30005501F145930705022246B246E3D7E5D4A2
:101E400061153314AA008144A9BB85469D8EB1E774
:101E50001309E941B3972401B3D4D4003319240101
:101E6000B337F000B3649900DD8C93F77400B35678
:101E7000D40081CF93F7F40011466388C70093879D
:101E80004400B3B49700A696BE849397860063D8A7
:101E9000070485470144814469B113068003E34385
:101EA000D6CC7D46E356D6FA0556B307F6409305E1
:101EB00000023356F4006387B6001309E943B317F1
:101EC0002401DD8CB3349000D18C93F6740001446E
:101ED00099CA93F7F40011468146E392C7FA139426
:101EE00096003180F6068D80D58C81471DB9930709
:101EF000F07F0144814435B142897DBD411106C660
:101F000022C426C205CD9357F541B3C4A7009D8CCA
:101F10002A84268565219306E041898EA9477D8024
:101F200093F6F67F63CDA7022D47098FB3D7E40060
:101F30005505B207B394A400B18329A0014481469A
:101F400081478144B207D206B1837E04D58FC18F09
:101F5000B24022442685BE859244410182805515B7
:101F6000B397A400B207B1838144E9BF797122D449
:101F7000135475014ECE52CC9319950006D626D235
:101F80004AD056CA5AC81374F40F93D99900135AF9
:101F9000F50169C49307F00F6308F40E93973900B5
:101FA00037070004B3E9E700130414F88144014B38
:101FB00013D77501939A95001377F70F93DA9A0068
:101FC00013D9F50145CF9307F00F630CF7028E0A82
:101FD000130717F8B7070004B3EAFA003A9401466A
:101FE00033452A01BD47AA869305140063E0971084
:101FF000175700001307C7BE8A04BA949C40BA97CB
:1020000082871304F40F63960A0C93E424000946B4
:10201000C1BF01451307F00FB7074000B25022546B
:10202000A6075E07A5837E05D98F92540259F2490F
:10203000624AD24A424B5D8D45618280CA86D6890A
:10204000328B8947630FFB088D47E304FBFC854710
:1020500036856310FB1A01478147C9B7639D0904A0
:1020600013D77501939A95001377F70F91440144A4
:10207000054B93DA9A0013D9F50131F7639D0A00F5
:1020800093E414000546A9BF63920902A144130416
:10209000F00F094B31BF568515269307B5FF098C04
:1020A000B39AFA001304A4F801461DBFB144130407
:1020B000F00F0D4BF5BD4E852EC609269307B5FFD3
:1020C0001304A0F8B399F900098C8144014BB2457F
:1020D000C5B593E434000D4621B78947D286E31590
:1020E000FBF636851307F00F81470DBF416393065A
:1020F000F3FF13D6090193D80A01B3F7D900B3FA55
:10210000DA0033885703B389F80213570801B30A7A
:102110005603D6994E9733061603637357011A96E2
:10212000C167FD17B376F7003378F800C206C29690
:102130009399660093570701B3393001E982B2974A
:102140009A07B3E6D900B3E9D7009397490063D95A
:10215000070013D7190093F71900B369F7002E840D
:102160001307F4076350E00493F7790099C793F7D6
:10217000F90091466383D70091099397490063D989
:102180000700B70700F8FD17B3F9F90013070408B3
:102190009307E00F63CBE70493976900A583137758
:1021A000F70FADBD8547B386E74011C76D460147C0
:1021B0008147E345D6E61307E4093397E90033374F
:1021C000E000B3D7D900D98F13F7770019C713F7F9
:1021D000F70091466303D700910713975700634CAC
:1021E00007009A07A583014715BD1307F00F814724
:1021F00035B52E84B5B7054781470DB51357750121
:10220000370680009307F6FF1377F70F9305E00773
:10221000B3F6A7009357F501014563F4E50099C3B0
:10222000828082809307E0097D55E3EBE7FE93050A
:102230005009B3E7C60063D7E5001307A7F6339547
:10224000E7008280130560093307E54033D5E700D6
:10225000828093D645019397C50093F6F67FB183AC
:10226000138616008E071357D5011376E67FFD817E
:102270005D8F9318350035CE138806C89307E00F9D
:1022800063DD07018147139597009306F00FDE0683
:102290002581FE05558D4D8D82806355000B93176A
:1022A00065000E07B337F000D98F93D8D801B3E794
:1022B000170113F777006301071013F7F700914632
:1022C0006303D7009107370700047D8F75C7130795
:1022D00018001306F00F9376F70FE305C7FA9A0775
:1022E000A58313959700DE062581FE05558D4D8D3E
:1022F0008280B367170199EE85CF95479A07A5832A
:102300001395970093F6F60FDE062581FE05558D91
:102310004D8D8280A5DBB70740001395970093068B
:10232000F00FDE0681452581FE05558D4D8D82809D
:102330008147139597008146DE062581FE05558D60
:102340004D8D8280A5576348F804F9473706800011
:10235000B38707417D45598E6351F504795733079B
:102360000741130500023357E6006388A7009386F0
:1023700026CAB316D600B3E8D800B3371001D98FF8
:1023800013F77700014815FB139757008546E3487C
:1023900007F48146A5B781468DB7938626C8339743
:1023A000D8003337E000B316D600B3D8F800B367CF
:1023B000D700B3E7F800E9B7C28689B7C167637C85
:1023C000F5029307F00F1307000263EBA70097577E
:1023D00000009387E784AA9788233305A74082806B
:1023E0002181975700009387A783AA978823614785
:1023F0003305A7408280B7070001636DF500618156
:10240000975700009387C781AA97882321473305F0
:10241000A740828041819757000093876780AA97E1
:10242000882341473305A7408280B3C7A5008D8B21
:102430003307C50081E78D4763EDC700AA87637E38
:10244000E508942185078505A38FD7FEE3EBE7FE1A
:10245000828093763500AA8789CA942185078505ED
:10246000A38FD7FE93F63700C5BF9376C7FF1386B9
:1024700006FE63F0C70683A3050083A2450083AF71
:10248000850003AFC50083AE050103AE450103A37C
:10249000850183A8C5019385450223A0770003A881
:1024A000C5FF23A2570023A4F70123A6E70123A811
:1024B000D70123AAC70123AC670023AE1701938776
:1024C000470223AE07FF75B790419107910523AEF0
:1024D000C7FEE3EBD7FEE3E6E7F68280797122D40C
:1024E0004AD052CC56CA5AC806D626D24ECE3A8ABE
:1024F000AE8A32843689428B01476358060037071B
:1025000000803344C7001307D00298A393F4F8FD6A
:10251000930760048D466388F4009307500489464E
:102520006393F4000509DA879308C100130881005A
:102530004A87D6852286EF00705B93077004AA89CC
:102540006396F400137A1A00630A0A04930760047E
:10255000338A29016397F40203C709009307000334
:10256000631EF700014681465685A285EF301013A1
:1025700011C585473389274123202B0183270B0071
:102580003E9A014681465685A285EF30301111E111
:1025900052C613070003B24763E24703B2474257EC
:1025A000B2502254B38737411CC34E85925402590E
:1025B000F249624AD24A424B4561828093861700B3
:1025C00036C698A3C9BF10A1130725009307B00210
:1025D00063D60500B305B0409307D0021CB1A547F0
:1025E00063DAB70441119307F100BE882948130349
:1025F0003006B3E605031386F7FF93860603A38F21
:10260000D7FEB3C60503634DB30093860603F917DF
:10261000A30FD6FE63E917013305A740410182806D
:10262000B287B685F9B7850783C6F7FF0507A30FFD
:10263000D7FECDB793070003130745009385050325
:102640003CA12CB13305A740828019713ACE86DEB9
:10265000A2DCA6DA2E84CAD8CED6D2D4B689DAD0F5
:10266000DECEE2CC3289D6D2E6CAEAC8EEC6AA8469
:10267000EF10B044832B05005E85EF003016032B6E
:102680000400724702DC93760B102A8C034A840103
:102690001C43F1CA9386470014C39C430810984317
:1026A0003AD0D8433AD298473AD4DC473ED6EF40A6
:1026B000602028C46CC4832CC4041747000013078F
:1026C0006766832A8404032D0700832D47009397B0
:1026D0001C0085836A86EE865685BE853ECEEF4019
:1026E000A00C41EDF2476A86EE865685BE85EF3036
:1026F000700C6354A008014681465685E685EF308C
:10270000700B635605009307D002A301F4049307EE
:102710007004974A0000938A6A6163F64701974AFA
:102720000000938AEA60137BBBFF8D47232064017E
:102730001CC8014B4E87CA867018A2852685F126D3
:10274000FD5C631C95157D55F6506654D65446596C
:10275000B659265A965A065BF64B664CD64C464DF1
:10276000B64D096182809D07E19B9386870014C363
:102770009843DC4338C47CC43DBF5686E686568504
:10278000E685EF40600211CD93077004974A000080
:10279000938A4A5AE3F947F9974A0000938ACA593B
:1027A00059B75C407D57137DFA0D6393E70899474D
:1027B0005CC0544013670B403C18D6853EC018C01F
:1027C0009307310302C2D288130841036686268527
:1027D000313393077004AA8AD255631BFD00F55765
:1027E00063C5F5005C4063D7B708791A137AFA0F0E
:1027F0009307500663E54705FD155286130504054A
:102800002EDAD133625785462A8BB307A7001CC83E
:1028100063C5E6001840058B19C385071CC88347AC
:102820003103E38907F09307D002A301F40419B739
:1028300013077004E31FEDF6ADFF854795BF9307BF
:102840006006631BFA025C40635BB0000CC881E762
:102850001840058B09CF8507AE971CC809A889E7E2
:1028600018408546058B19C39386270014C82CCCC5
:10287000014B75B7130A7006E25763C9F5001C4097
:102880000CC8858BEDD793871500C1BF05476344FE
:10289000B00009470D8FBA97C9B71C4013F707401E
:1028A00015E314485686CA8526858299E30D95E975
:1028B0001C40898B63960724F2574844E356F5E899
:1028C0003E8559B513075006637B471928446C446D
:1028D00001468146EF30805C39E9854617460000A5
:1028E0001306C645CA8526858299E30E95E552579B
:1028F000E2576345F7001C40858BDDDBE2865E8690
:10290000CA8526858299FD57E30FF5E2014A930AAD
:10291000A4017D5BE257FD17E35CFAF88546568615
:10292000CA8526858299E30065E3050AE5B7D25793
:102930006346F00685461746000013062640CA8502
:1029400026858299E30195E1D2576257D98F81E7B5
:102950001C40858BB1DFE2865E86CA85268582991A
:10296000FD57E302F5DE014A130BA401FD5BD257CC
:10297000B307F040634BFA00E2565686CA852685B7
:102980008299FD57E316F5F27DBB85465A86CA85C6
:1029900026858299E30975DB050AD1BF3C4C625A52
:1029A00063D347013E8A635A4001D2865686CA8560
:1029B00026858299FD57E308F5D8814C130DA401B3
:1029C000FD5D09A885466A86CA8526858299E30C3D
:1029D000B5D7850C032B8405D28763530A00814742
:1029E000B307FB40E3C0FCFE5257E257634DF702CA
:1029F0001C40858B8DEBE2575257338AE740634486
:102A0000EB00338A6741635B4001D28633866A01FB
:102A1000CA8526858299FD57E307F5D2814A130BB3
:102A2000A401FD5B15A0E2865E86CA852685829993
:102A3000FD57E312F5FC01BB85465A86CA852685FB
:102A40008299E30275D1850A5257E257998F5287CE
:102A500063530A000147998FE3C0FAFE91BDE25625
:102A600005476344D700858BB5C785465686CA851A
:102A7000268582997D5AE30845CDE2865E86CA8521
:102A800026858299E30145CD28446C440146814660
:102A9000EF30C0401DC9E25613861A00CA85FD16E4
:102AA00026858299E30145CBDA8613060405F9B53C
:102AB00085465686CA8526858299E30675C9050A24
:102AC000E257FD17E346FAFEC5B7014A930AA4018F
:102AD000FD5BFDB785465686CA8526858299E31536
:102AE00095FD95B185465686CA8526858299E30C63
:102AF00065C5050A5C447257998FE345FAFE6DBBC4
:102B0000014A930A94017D5BF5B7797156CA9C49D5
:102B1000BA8A984522D426D24ECE52CC06D64AD076
:102B20005AC85EC6AA892E84B284368A63D3E70067
:102B3000BA879CC00347340419C385079CC01C4056
:102B400093F7070281C79C4089079CC003290400B2
:102B500013796900631A0900130B9401FD5B5C444F
:102B60009840998F634CF9041C408346340493F7D2
:102B70000702B336D000A5EB13063404D2854E8588
:102B8000829AFD576303F5041C4011469840998BC7
:102B9000544481446397C700B384E64063D3040080
:102BA00081441C4418486354F700998FBE9401492E
:102BB00069047D5B63982405014509A885465A860A
:102BC000D2854E85829A631E75017D55B25022547E
:102BD00092540259F249624AD24A424BB24B456181
:102BE00082800509ADBF3307D40013060003A3019B
:102BF000C7040347540493871600A2978906A3814C
:102C0000E7049DBF85462286D2854E85829AE30ED3
:102C100065FB050945B7797122D426D24AD04ECE3C
:102C200006D652CC56CA5AC8B689942D9307900638
:102C30003289AA842E8413863504638DF60263E2FA
:102C4000D706930780056386F61863EDD700638E79
:102C5000062093073004638FF60A930A24042301A5
:102C6000D404D1A0930730066386F60A9307400682
:102C7000E395F6FE1C40084393F6070893054500CC
:102C8000CDC61C410CC363D807001307D002B3079D
:102C9000F040A301E404974600009386660A2947A2
:102CA0006DA8930700076382F61663E5D7029307C2
:102CB000E0066389F6189307F006E390F6FA0C40F5
:102CC0001C4313F80508138547006308080608C36A
:102CD0009C438DA893075007E383F6FE9307800774
:102CE0006389F61293073007E399F6F61C43D04147
:102CF00081459386470014C383AA07005685EF10C9
:102D0000A06C01C53305554148C05C401CC8A301F7
:102D1000040461A81C43930A2404938647009C433F
:102D200014C32301F4048547D5B793F607041C4167
:102D30000CC3B1DAC207C187B9B793F5050408C35C
:102D4000C1D99E231307F0066386E60E974600005E
:102D5000938606FF2947A30104044C400CC463C5B5
:102D6000050008406D9908C099E3B28A89CDB28AFE
:102D7000B3F5E702FD1AB6958C212380BA00B3D5CE
:102D8000E70263FFE70AA147631EF7001C40858B3B
:102D900091CB58401C4863C7E70093070003A38FFB
:102DA000FAFEFD1A3306564110C84E87CA867000D7
:102DB000A2852685993B7D5A631D450B7D55B250F2
:102DC000225492540259F249624AD24A424B456116
:102DD0008280A382D50497460000938666F60C4055
:102DE000084313F805081C411105630D080208C3C8
:102DF00013F7150001C793E505020CC04147A1FF79
:102E00000C4093F5F5FD0CC0B9B79C4193E7070260
:102E10009CC193078007A302F404974600009386A1
:102E200066F375BF13F8050408C3E30308FCC20783
:102E3000C1837DBF97460000938686F0214721BF5E
:102E4000AE873DB794411C43CC4913F8060813855F
:102E500047006306080008C39C438CC339A008C31D
:102E600093F606049C43F5DA8EA323280400B28A65
:102E70002DBF14485686CA8526858299E30045F5FC
:102E80001C40898B8DE7B2474844E35AF5F23E85F2
:102E90003DB785465686CA8526858299E30065F347
:102EA000050A5C443247998FE345FAFEE9BF014ABF
:102EB000930A94017D5BF5B739713EDA2ED232D494
:102EC00036D63AD842DC46DE9387C18022CC804396
:102ED00026CA06CEAA8411C41C4C81E72285EF10B5
:102EE00000270C4454102686228536C6EF10905DCC
:102EF000F2406244D24421618280011126CA4AC84C
:102F000006CE22CC4EC652C4AA842E8909C51C4DB9
:102F100099E3EF10C0239C4C804481E72685EF1095
:102F20000023974700009387E7EB631BF402C04040
:102F30005E24A18BB1C71C48A1C7FD59294A1C4476
:102F400083450900FD17B1E91CC463DD070622862D
:102F5000A94526856928FD576308F502294535A04E
:102F600097470000938707EA6314F4008044C9B7C9
:102F700097470000938707E5E31CF4FAC0444DBF70
:102F8000A2852685352255D97D55F2406244D2442A
:102F90004249B249224A056182801CC4050963D7AF
:102FA0000700184C63CAE700638845011C4013877B
:102FB000170018C08CA361B7228626850D28E31060
:102FC00035F9D9B71C401387170018C0294798A3B3
:102FD00071B79387C180AA85884305B7AA878507FB
:102FE00003C7F7FF6DFF3385A7407D158280011170
:102FF00022CC26CA4AC806CE4EC6AA842E8932845E
:1030000009C51C4D99E3EF10801497470000938782
:1030100067DD6319F406C0401C4C1CC45E24A18B00
:10302000D1C31C48C1C31C4808409379F90F1379D8
:10303000F90F1D8D5C486347F500A2852685EF00DA
:10304000507F2DE51C440505FD171CC41C4013874B
:10305000170018C0238037015C486388A7005E24EE
:10306000858B89CBA9476317F900A2852685EF00D8
:10307000507C0DEDF24062444A85D2444249B24947
:1030800005618280974700009387C7D76314F400D7
:10309000804459B7974700009387C7D2E31EF4F6E0
:1030A000C0449DBFA2852685212035DD7D59D9B735
:1030B00041119387C18026C2844322C44AC006C6F8
:1030C0002A892E8491C49C4C81E72685EF10200824
:1030D00097470000938707D1631BF402C040031792
:1030E000C40093170701C18393F68700B5EA93F6EE
:1030F000070195EEA5472320F900136707045AA49A
:103100007D55B24022449244024941018280974752
:103110000000938727CF6314F4008044C9B7974712
:103120000000938727CAE31CF4FAC0444DBF918B7B
:1031300085C74C5891C9930744046385F5004A85B7
:10314000EF10B01A232A04025E242322040093F70E
:10315000B7FD5EA41C481CC05E2493E787005EA4F4
:103160001C4881EF5E241307002093F7072863862D
:10317000E700A2854A85EF10401B5E2413F7170075
:103180001DC35C4823240400B307F0401CCC1C483A
:103190000145A5FB8317C40013F707083DD393E748
:1031A00007045EA4B1BF898B014791E3584818C456
:1031B000F9BF011122CC1C49804906CE26CA4AC853
:1031C0004EC652C456C263C187127D141318240020
:1031D00093894501338A0901130945014A988327D8
:1031E0000A00032708008507B354F7026366F70651
:1031F000C1684E834A8E814E014FFD18110303268C
:10320000C3FF110E3377160141823307970233064D
:103210009602769793560701B3771701B307FF40DD
:1032200036968326CEFF935E06013376160133F77A
:103230001601BA97C18213D70741918EBA9613DF50
:103240000641B3F71701C206D58F232EFEFEE377A2
:103250006AFA83270800BDCBAA8AEF10406763494A
:10326000050441668504CA8501457D16910903A8B8
:10327000C9FF98419105B376C800158DB376C70094
:10328000AA96935707011358080113D70641B3872D
:103290000741BA9713D50741F18EC207D58F23AEE8
:1032A000F5FEE3753AFD93172400CA9798431DC7AE
:1032B0002685F2406244D2444249B249224A924AA7
:1032C000056182808327080089E77D147118E36B0C
:1032D00009FF00C951B7984309E77D14F117E36C62
:1032E000F9FE23A88A00E9B70145E1B775713ED818
:1032F0005C5122C526C34AC1CEDED2DCE2D406C769
:10330000D6DADAD8DED6E6D2EAD0EECE36C23AC681
:1033100046CAAA842E843289C2892E8A328C89EFC9
:103320004145EF10A009C8D0232205002324050041
:103330002320050023260500DC508C4389CDD8438B
:1033400085472685B397E7009CC5D8C1EF10A0112B
:10335000DC5023A00700635309048547131C1900A0
:1033600023A0F900135C1C00B707F07F3377FC0043
:103370006314F70642578967320C9387F770135C22
:10338000CC001CC3336C8C00E3000C32D24791EBB1
:10339000974700009387C7A23EC039A823A0090021
:1033A000E1B7974700009387A7A13EC09747000069
:1033B000938737A152471CC3BA402A4402459A4416
:1033C0000A49F659665AD65A465BB65B265C965C45
:1033D000065DF64D49618280014681462285E2857F
:1033E00022CE62D4EF20902B05E1425785471CC3C3
:1033F00097470000938787943EC0D247D5DF974711
:1034000000009387B7937DB7B800F4006286A28569
:10341000268513594C01EF10A05D1379F97FAA8915
:10342000A64A630D0910A2577245130919C0939556
:10343000C700B181B707F03FDD8D02DC9747000080
:103440009387C7929043D443EF20304297470000C0
:10345000938747929043D443EFE00FDF97470000F4
:103460009387C7919043D443EF1010552A8B4A8518
:10347000AE8BEFE0BFA8974700009387A7909043DB
:10348000D443EFE06FDC2A86AE865A85DE85EF10E6
:10349000B0522A8BAE8BEF30E0342A84014681464D
:1034A0005A85DE85EF201031635B05002285EFE051
:1034B000FFA45A86DE86EF20701E11C17D140547D9
:1034C000D9473AD663E387021317340097470000C1
:1034D0009387C797BA979043D4437245A255EF207C
:1034E000702D635305007D1402D633892A41930B56
:1034F000F9FF014B63D60B00054B330B2B41814B7E
:10350000634E0406A29B22CC814A1247A54763E57D
:10351000E7149547854C63D6E7009307C7FF3EC283
:10352000814C12478D47630EF71063CFE70489473C
:1035300002C8630DF70685473EC88DA0364993073C
:10354000000256991307294363D5E70213050004C7
:10355000198D930729413315AC003354F400418D84
:10356000EF30C02EB70710FEBE9585477D193EDCB3
:10357000F1B53385E7403315A400DDB7330B8B403D
:10358000B30A804002CC51B712479147630EF7004F
:1035900005473AC8124795476306F70AFD573EC4E8
:1035A000FD5DC94702C619A885473EC8B2476348B2
:1035B000F00A854705473EC4854D3AC603A9440233
:1035C000114723220900930647018325490063FC24
:1035D000D7082685EF00D060DC502320A9009C434B
:1035E0003EC0B94763E6B71D63840C1C635E800A66
:1035F0009377F40013973700935C4440974700009B
:103600009387C784BA9793F60C0198430949DC4322
:1036100085C6974600009386E68090527245D45244
:10362000A2553AD03ED2EF20202C0257925793FC5D
:10363000FC002A8A2E8C0D49173D0000130D8D7E4B
:1036400089A802C8B247A2973EC4938D1700EE879F
:10365000E346B0F785479DB7854C02C2E9BDB24746
:103660003EC4BE8DA1BF85052322B9000607A1BFB8
:1036700093F61C0081CE03260D0083264D003A856B
:10368000BE85EFE06FBC05092A87AE8793DC1C403E
:10369000210DE39F0CFC3A86BE865285E285EF2021
:1036A000A0242A8A2E8C81A0094915CCB30C804015
:1036B00093F7FC001397370097370000938707793B
:1036C000BA979043D4437245A25593DC4C40173DC2
:1036D0000000130D2D75EFE02FB72A8A2E8C81473D
:1036E000639B0C12DDFFB257638607141737000087
:1036F0001307C769104354435285E28552D0EF2027
:10370000700B63590512638A0D12A2476350F00AC9
:1037100017370000130707688257104354433E854C
:10372000E285EFE06FB2A247130DF4FF2A8A2E8CD8
:10373000050962874A853EDE52DABA8C3AD0EFE05C
:10374000EFFB525802573709C0FC4286BA86EFE0B9
:10375000AFAF97360000938666649042D442528C95
:10376000EF109025F2572A8A2E99F9EB973700002F
:1037700093874763525802579043D4434285BA8592
:10378000EF20B00E5286CA862A8CAE8CEF20A0772E
:103790006346A054B7070080B3C727015286BE8690
:1037A0006285E685EF20100163470552724A225C6C
:1037B000B64763C307303947634087301317340077
:1037C0009737000093878768BA9703AB070083ABEE
:1037D0004700B24763D10720634FB01F639D0D4E72
:1037E000973700009387075C9043D4435A85DE8562
:1037F000EFE08FA55286E286EF20E070814A014912
:103800006353054A824702470504138A170093074A
:1038100010031CA369A913F71C0009CB03260D0094
:1038200083264D000509EFE02FA2854793DC1C405D
:10383000210D7DB5228DEE87EDBD228D8147D5BD51
:103840009386F7FF1396360097360000938606603E
:10385000B2968842CC428246B6973EDAC247E9C366
:1038600097370000938787542A86AE868843CC43D7
:103870004ADE52D0EF204007025872571739000035
:10388000130949514286BA86EF20207E024A2AD087
:103890002ED2E6856285EF20F0742ADEEFE00FE697
:1038A0002A86AE866285E685EF20207CF2572A8C38
:1038B000AE8C2A86AE8602559255050A9387070379
:1038C000A30FFAFEEF2020646348A00E9737000094
:1038D0009387C74B8843CC436286E686EF20E07827
:1038E0002A86AE8602559255EF20E0616342A01809
:1038F000D257E30DFAEA0326090083264900025550
:103900009255EFE06F9403260900832649002AD0E0
:103910002ED26285E685EFE02F932A8CAE8C95BF80
:103920005286CA86EFE04F92525A02492AD02ED2CE
:10393000E6856285EF20106B2ADEEFE02FDC2A8619
:10394000AE866285E685EF2040727257D257050930
:1039500013070703A30FE9FE2A8CAE8C6312F90646
:1039600017390000130989440326090083264900FA
:1039700002559255EF1050042A86AE866285E68580
:10398000EF2060586346A00E0256925603250900A8
:1039900083254900EF20606D2A86AE866285E68524
:1039A000EF20406193070003E35205E00347FAFF6D
:1039B0009306FAFF6304F7006A8459A8368AFDB7B4
:1039C000973700009387073D9043D443EFE0CF87BC
:1039D0002A8CAE8CB1BFE287BE8C8247528C973A5C
:1039E0000000938A2A3B13891700BE9D5A86DE8603
:1039F0006285E685EF10506FEF20D05E2A8DEFE0F4
:103A0000EFCF5A86DE86EFE02F842A86AE86628567
:103A1000E685EF20806593070D03A30FF9FE2A8644
:103A2000AE864A8A639B2D07EF1000795A86DE86A0
:103A30002A8CAE8CEF20204D634BA0025A86DE8686
:103A40006285E685EF20804501E593771D0085E3DB
:103A5000CE852685EF003021C25723000A000504D9
:103A600080C3D247E38A079423A04701B1B2228DD5
:103A7000130790038346FAFF9307FAFF6399E60062
:103A80008246639AF60013070003050D98A2982357
:103A9000050798A315B73E8AF1BF03A60A0083A6BF
:103AA0004A000509EFD05FFA014681462A8CAE8CA8
:103AB000EF20C03E05FD69BF4247630007109246F4
:103AC00005476345D70C62579387374309E7264775
:103AD00093076003998F568DDA8C854526853E9B2A
:103AE000BE9BEF00B0302A89635E9001635C700179
:103AF000E68763D39B01DE87330BFB40B38CFC402E
:103B0000B38BFB4063800A04C247C5CF6354A00354
:103B1000CA856A862685EF0030434E86AA852A89A3
:103B20002685EF00502E2ACECE852685EF00B013D5
:103B3000F247BE893386AA4111C6CE852685EF009D
:103B4000B040AA8985452685EF00502AE247AA8A17
:103B5000635BF0063E86AA852685EF00F03E12479D
:103B60008547AA8A014D63C8E706014D63120A061C
:103B70009317CC00528DA9EFB705F07F337CBC00C2
:103B800063080C04050B850B054D99A0138DFDFFF3
:103B900063CAAA01338DAA4163DE0D00B30CBB4199
:103BA000814725BFE247B30A5D41D6973ECCEA8AFA
:103BB000014DDDB7DA8CEE870DB7568DDA8C0149F1
:103BC00025B756869DBF12478547014DE3DFE7F8CD
:103BD000E247054589CF83A70A018D078A07D69753
:103BE000C843EF00B015930700023385A7405E95E8
:103BF0007D8951C193070002898F1147635AF706E7
:103C0000F1473385A7402A9BAA9CAA9B6358600171
:103C1000CE855A862685EF00B03EAA89635870018A
:103C2000D6855E862685EF00B03DAA8AB257B1C719
:103C3000D6854E85EF00B04963510504CE85814697
:103C400029462685EF005006C2477D14AA89638B5A
:103C50000726CA85814629462685EF00F004A2473B
:103C60002A896345F0081247894763D1E70829A8E4
:103C7000E38EE7F83E85710579B76345B0071247D3
:103C8000894763D1E7066EC4A24791EFD685814686
:103C900015462685EF005001AA8AAA854E85EF00B9
:103CA0001043E341A0B6B247024A13C4F7FF014BE9
:103CB000D6852685EF00207BE30C09D863080B002E
:103CC00063062B01DA852685EF00E079CA85268513
:103CD000EF006079B5BB814A0149F1B76A84814A36
:103CE00001490DB6C2476EC46385071E6358900133
:103CF000CA8566862685EF00B0302A894A85630624
:103D00000D02832549002685EF00806D03260901F9
:103D10002A8B9305C90009060A063105EFE0EFF08A
:103D20000546DA852685EF00B02D824722474A8B6B
:103D3000138C1700BA973EC693771A002A893EC49F
:103D4000D6854E85EFF0EFC6DA852A8D930D0503F3
:103D50004E85EF00D0374A86AA8BD6852685EF00A0
:103D6000303A5045930CFCFF2A8A054711E6AA8594
:103D70004E85EF00D0352A87D28526853AC8EF00D8
:103D8000806E92474247628AB3E6E700A247DD8E23
:103D900081EE130790036388ED0463547001930D63
:103DA0001D032380BC0129B763CA0B009247B3EB04
:103DB0007701A247B3EBFB0063950B04E353E0FEEE
:103DC000CE8505462685EF00B023D685AA89EF006B
:103DD00010306346A00071F513F71D0079D3130767
:103DE0009003E39EEDFA930790032380FC00930673
:103DF00090038347FAFF1307FAFF638CD708850700
:103E000045A0635BE00013079003E38EEDFC93870E
:103E10001D002380FC0069BDB247A30FBCFF638176
:103E20008705CE85814629462685EF00E067AA8969
:103E300081462946DA85268563182B01EF00C06686
:103E40002A8B2A89050CEDBDEF000066CA852A8BF6
:103E5000814629462685EF0020652A89E5B7014B72
:103E6000CE8505462685EF00B019D685AA89EF00D4
:103E70001026E34EA0F601E593F71D00ADFB930776
:103E800000030347FAFF9306FAFFE313F7E2368ACB
:103E9000CDBF82476398E7000247050493071003EC
:103EA0001CA339B53A8AB1B75247973700009387B8
:103EB00067F03EC097370000938747F0631C07CE3A
:103EC0006FF08FCFA2476346F00012478947E3CDDA
:103ED000E7DA024AD6854E85EFF0AFAD8247050A94
:103EE000930D05033307FA40A247A30FBAFFE35827
:103EF000F7F6CE858146294626857D23AA89D9BF36
:103F0000DE25011122CC26CA06CE4AC84EC613F7BA
:103F10008700AA842E8461EFD841634DE000B84148
:103F2000634AE0000145F2406244D2444249B2494A
:103F30000561828058547DD703A904009396370108
:103F400023A0040063DC060670485E24918B99C7A9
:103F50005C401D8E5C5899C33C401D8E5C540C50D7
:103F6000814626858297FD575A24631DF5009440AB
:103F7000F54763E9D706B70740208507B3D7D700D1
:103F8000858BADC31C48232204001CC09317370146
:103F900063D80700FD576314F5009C4091E368C89F
:103FA0004C5823A02401BDDD930744046385F5002C
:103FB0002685EF009033232A0402ADB70C5001464A
:103FC000854626850297FD572A86E310F5F89C4022
:103FD000ADDF75476385E70059476393E70423A086
:103FE000240189B7136707045AA47D552DBF83A9FF
:103FF0000501E38909F203A905008D8B23A0350192
:1040000033093941014791E3D84918C4E35C20F1F1
:104010001C540C50CA864E86268582976347A000A2
:104020005E2493E707045EA4C9B7AA993309A9409F
:10403000F1BF9C49B9CF011122CC06CE2A8411C50B
:104040001C4D81E72EC62122B24597370000938789
:1040500067D9639BF5004C408397C50095C72285BF
:104060006244F240056169BD97370000938787D9A4
:104070006394F5000C44CDB797370000938787D43D
:10408000E39CF5FC4C44C9BFF24062440145056124
:10409000828001458280411122C406C62A844EA531
:1040A00072A52320050023220500232405002322D6
:1040B000050623280500232A0500232C0500214698
:1040C00081451305C505EFC0AF959717000093878D
:1040D00067EB5CD097170000938787ED1CD4971788
:1040E0000000938767F15CD4971700009387C7F3AC
:1040F00000D01CD8B24022444101828097050000C4
:10410000938565F3B1A2411126C2130680069384FC
:10411000F5FFB384C4024AC02E8922C406C6938523
:104120004407EF00D0262A8401CD23200500232256
:104130002501310508C4138684068145EFC04F8EE2
:104140002285B240224492440249410182801C4DA2
:10415000ADE3411106C622C497070000938747FAD2
:104160001CD5938701819C43232405042326050441
:10417000232805046314F50085471CCD2A841D28D7
:1041800048C02285052808C422852D2048C44840FF
:1041900001469145093708440546A545ED3D48448B
:1041A0000946C945CD3D85471CCCB240224441015A
:1041B0008280828041119387018126C284434AC054
:1041C00006C69C4C22C42A8999E3268549379384E4
:1041D00084048044DC40FD1763D607009C40B9CFBF
:1041E0008440C5BF0317C40039E7C1778507232280
:1041F00004062320040023220400232404005CC4BA
:1042000023280400232A0400232C0400214681458E
:104210001305C405EFC0CF80232A0402232C040217
:1042200023240404232604042285B2402244924419
:104230000249410182801304840671BF91454A8579
:10424000D93588C051FDB1472320F9000144E9BFA9
:10425000797122D44AD052CC56CA5AC85EC606D604
:1042600026D24ECE2A8AAE8A130485040149054B14
:10427000FD5B09ECB25022544A8592540259F2492E
:10428000624AD24A424BB24B456182800444832940
:104290004400FD1963D409000040E1BFDE24637BC4
:1042A000FB008397E40063877701A6855285829A95
:1042B0003369A90093848406E9BF9387C1809C4336
:1042C000885309E517C5FF1F1305C5FB1305050F27
:1042D00082801971A6DAAE848395E500A2DC86DEC1
:1042E000328463DB0500DE2423A0060093F7070871
:1042F00085E7930700401DA0300836C6EF007059CF
:10430000B246E34205FE7247BD67F98F7977BA97E7
:1043100093B717009CC2F1BF930700041CC0F6506E
:104320006654D654014509618280DE25011122CCF4
:1043300006CE26CA4AC8898B2E8489CF9307740477
:104340001CC01CC885475CC8F2406244D244424944
:104350000561828074003000AA84A53FA2452A89A5
:104360002685EF00D00219E98317C40013F7072050
:1043700061FFF19B93E727005EA4C9B79707000090
:10438000938707D89CD45E2408C008C893E7070821
:104390005EA4A2475CC8B24781CF8315E40026859E
:1043A000EF00705211C55E24F19B93E717005EA4E5
:1043B0005E243369F9002316240179B79387C180FD
:1043C000AA8588436F00A07C93F5F50F2A966314A5
:1043D000C500014582801C21E38EB7FE0505C5BFDF
:1043E0005C51411122C44AC006C626C22A842E89C5
:1043F00081EF4145E13748D0232205002324050001
:1044000023200500232605004450DC4495C758505E
:10441000931729005847BA9788431DED8544B394F4
:104420002401138654000A0685452285612D11CD8D
:104430002322250104C51DA01306100291452285E3
:1044400051255C50C8C4DC47F9F30145B240224411
:104450009244024941018280184198C323280500F3
:1044600023260500E5B75C51011122CC06CE2A8433
:1044700091EF41452EC69937B24548D02322050019
:1044800023240500232005002326050091C954504C
:10449000DC4113972700DC46BA97984398C18CC338
:1044A000F24062440561828079714ECEAA894165ED
:1044B00022D426D22E84844906D64AD0D10501487A
:1044C0007D159C419105050833F7A7003307C70206
:1044D000C183B387C702369793560701698FB69792
:1044E00093D60701C207BA9723AEF5FEE34B98FCBB
:1044F00095CE1C4463C5F4024C404E8536C68505F6
:10450000C53510489305C4002A8909060A063105F5
:10451000EFD0BFF1A2854E85B937B2464A84938762
:1045200044008A07A297D4C3850404C82285B250E8
:10453000225492540259F249456182804177698F31
:10454000AA87014519E3C2074145370700FF7D8F60
:1045500019E32105A207370700F07D8F19E3110544
:104560009207370700C07D8F19E309058A0763C9E1
:1045700007001397170005056344070013050002A1
:1045800082801C4113F777000DC393F61700014793
:1045900099E613F7270011C785831CC105473A85A3
:1045A000828089831CC10947DDBF93960701C182C0
:1045B000014799E2C183414793F6F70F99E221073A
:1045C000A18393F6F70099E21107918393F63700E0
:1045D00099E20907898393F6170081E68583050729
:1045E00099C31CC16DBF1307000255BF411122C4FE
:1045F0002E84854506C6ED3340C9B24022440547A6
:1046000018C94101828098491C4A797126D206D680
:1046100022D44AD04ECEAE846354F700B2842E86A4
:1046200083A90401032906019C44CC403384290159
:1046300063D38700850532C66533324613084501CA
:10464000131324004293C28763ED670293854401EC
:10465000939829005106131E2900C166AE98329E18
:10466000FD166364C603635680007113832703003D
:10467000F1CB00C9B250225492540259F24945611B
:10468000828023A007009107C1B7832F0600B3FFE4
:10469000DF00638A0F04428FAE82814403A70200C9
:1046A00083230F00110FB37ED700B38EFE03B3F741
:1046B000D30093D303019102BE9E93570701B387A2
:1046C000F703A69E13D70E01B3FEDE009E97BA979E
:1046D00093D40701C207B3E7D701232EFFFEE3EF10
:1046E00012FB23209F0083522600638A0204832743
:1046F0000800C28E2E8F814F03270F0083D32E0018
:10470000F58F758F33075702910E110F1E977E9705
:10471000931F0701B3E7FF0023AEFEFE8357EFFFB1
:1047200083AF0E004183B3875702B3FFDF00FE97CC
:10473000BA9793DF0701E3611FFD23A0FE00110676
:10474000110805B77D1405B7011126CA4AC84EC61F
:1047500006CE22CC52C4937736002A89B284AE8921
:1047600089CFFD17172700001307C77A8A07BA9762
:1047700090438146EFF05FD3AA898984ADC883272F
:10478000490291EF4145EFF07FC32322A902232282
:104790000500232405002320050023260500032A05
:1047A000490203248A0011E8930510274A853D3DFC
:1047B0002324AA002A842320050093F7140099CB10
:1047C000CE8522864A8581352A8ACE854A85EFF0B4
:1047D0009FC9D289858481CC084001E92286A285BF
:1047E0004A85153508C0232005002A84F9B7F24010
:1047F00062444E85D2444249B249224A05618280D0
:10480000797126D2AE844ECE83A9040122D4CC4144
:10481000135456409C44A2994AD056CA06D652CC4C
:10482000AA8A1389190063C42709568532C6EFF096
:104830003FBB3246930745012A8ABE86014791064F
:10484000634A870663530400014494480A0433878B
:1048500087008A06938744017D8ABE9625C2130885
:1048600000023308C840814588431107910733157A
:10487000C500C98D232EB7FE83A5C7FFB3D505019B
:10488000E3E4D7FE0CC399C1138929007D192328BD
:104890002A015685A685EFF01FBDB25022545285DD
:1048A00092540259F249624AD24A45618280850592
:1048B000860795BF23AE06FE050751B7910703A6ED
:1048C000C7FF1107232EC7FEE3EAD7FEC1B71C4975
:1048D0009849998F8DE30A075105D105B306E50084
:1048E000BA95F116F115904298416308E600FD571C
:1048F0006363E60085473E858280E364D5FEE5BFBD
:10490000011126CAAE844EC6B285AA89268522CC5C
:1049100006CE4AC83284653F05E181454E85EFF0F9
:104920003FAC85471CC9232A0500F2406244D244AB
:104930004249B24905618280054963460500A28764
:1049400001492684BE844C404E85EFF07FA90323A5
:10495000040183A8040113064401131E23001388D5
:1049600044018A08C16E23262501329EC29893060F
:104970004501014FFD1E1842832F08009106B375B3
:10498000D701B3F7DF01FA959D8D93DF0F019357A0
:104990000701B387F74113D70541BA9713DF0741E2
:1049A000B3F5D501C207CD8F110823AEF6FE11066F
:1049B000E36318FDC165FD156368C601F1169C42ED
:1049C00095C72328650095B71C429106110633F759
:1049D000B7007A9713580741C183C29713DF074185
:1049E0006D8FC207D98F23AEF6FEF9B77D13F9B7E5
:1049F000797122D42E84854526D24AD0B2844ECEF7
:104A000052CC3A8906D6368AEFF09F9D37071000C0
:104A10009307F7FFE58FD18093F4F47FAA89B5E07F
:104A20003EC62DC4280022C4EFF0BFB5A24621CD5A
:104A3000324793070002898FB317F700D58F33579A
:104A4000A70023AAF9003AC6324423AC89003334C4
:104A50008000050423A88900B9C49384D4BCAA9417
:104A60009307500323209A003385A7402320A900F1
:104A7000B25022544E8592540259F249624A45611D
:104A80008280D98F71BF23AAD9007DBF6800EFF063
:104A90005FAFB24713050502054423AAF900854715
:104AA00023A8F90055BF931724001305E5BCCE9742
:104AB0002320AA00884B1604EFF05FA8098C23205E
:104AC00089007DB73386C502011122CC06CEB2859E
:104AD00032C675282A8409C532468145EFB04FF4A5
:104AE0002285F240624405618280CDC183A7C5FF63
:104AF000411122C406C626C21384C5FF63D3070032
:104B00003E94AA84B12D938701839C4399EB232281
:104B1000040023A881822244B240268592444101A8
:104B200089A5637EF40014403307D4006396E70040
:104B30009843DC43369718C05CC0E1BFBA87D843BE
:104B400019C3E37DE4FE94433386D700631F8600D8
:104B50001040B29694C33386D700E31EC7FA1043C1
:104B60005843B29694C3D8C37DB76375C400B147A8
:104B70009CC055B71040B306C4006316D700144359
:104B80005843B29614C058C0C0C371B78280011197
:104B900026CA93843500F19806CE22CC4AC84EC668
:104BA000A104B14763F1F404B14463E0B4042A8979
:104BB000452B9387018398433A8431E0938741835F
:104BC0009C4391E781454A85592623AAA182A6855F
:104BD0004A85B52EFD5963173507B1472320F900E3
:104BE0004A85412329A0E3D204FCB1471CC10145F9
:104BF000F2406244D2444249B249056182801C407D
:104C0000858F63CE0702AD4663F6F6001CC03E9466
:104C100004C031A05C406312870223A8F1824A8558
:104C200089231305B4009307440061993307F540C5
:104C300061D33A94898F1CC065BF5CC3CDB722870E
:104C40004040A5BF130435007198E30385FCB3050C
:104C5000A4404A85ED2CE31D35FB41B71C46FD17EA
:104C60001CC663DA0700184E63C5E700A9476394C2
:104C7000F5006FE0CFB71C422E851387170018C2CE
:104C80008CA38280011122CC26CA4AC84EC652C4C7
:104C900006CE2A89AE893284B304D6007D5A6314C5
:104CA0009400014501A80C204E864A85453F050425
:104CB000E31745FFF2406244D2444249B249224AD6
:104CC00005618280357122CD26CB4AC94EC706CFF9
:104CD00052C556C35AC1DEDEE2DCE6DAAA89AE84EA
:104CE0003289368409C51C4D99E3EFF04FC69727EA
:104CF00000009387270F6398F40C83A44900DE24F7
:104D0000A18BE5C79C48F5C393070002A304F102F9
:104D10009307000302D22305F10222C6930B50022F
:104D2000972A0000938ACA1F054C294B4A841C20ED
:104D300099C3639F770DB30C2441638D0C00E68605
:104D40004A86A6854E853D3FFD576300F51E925667
:104D5000E69636D21C20638A071CFD5713091400FF
:104D600002C802CE3ECA02CCA309010482D4834504
:104D7000090015465685EFF02FE513041900C247C8
:104D800051E913F7070109C713070002A309E1045A
:104D900013F7870009C71307B002A309E10483468C
:104DA00009001307A002638FE606F2474A84814692
:104DB0002546182093051400130707FD6377E60ABC
:104DC000B5CA3ECE85A8972700009387A7036395B1
:104DD000F40083A4890025B797270000938787FEF6
:104DE000E39FF4F083A4C90019BFA6854E85EFE0C8
:104DF0002FAC19D97D55FA406A44DA444A49BA4978
:104E00002A4A9A4A0A4BF65B665CD65C0D61828040
:104E1000050431BF330555413315AC00C98F3EC879
:104E20002289B1B7324793064700184336C6634715
:104E300007023ACE18209307E002631DF7041830EA
:104E40009307A002631BF702B247090413874700C8
:104E50009C433AC663C107023ECA2DA83307E0400F
:104E600093E727003ACE3EC8F1B7B387670385467C
:104E70002E84BA973DBFFD57C5B7050402CA8146C7
:104E800081472546182093051400130707FD637614
:104E9000E606F9F20C200D46172500001305C5089B
:104EA000EFF08FD211CD972700009387E7071D8D74
:104EB00093070004B397A700424505045D8D2AC8F7
:104EC0000C20194617250000130545061309140088
:104ED0002304B102EFF04FCF25C197D7FFFF93878F
:104EE000077795E74247B2471377071009CF910735
:104EF0003EC69257D2973ED215BDB387670385460B
:104F00002E84BA9741B79D07E19BA107D5B77800DA
:104F100097060000938646D726860C084E85EFD06C
:104F2000CFF2FD572A8AE316F5FCDE2493F7070437
:104F3000E39207EC1255C1B57800970600009386FE
:104F4000A6D426860C084E85EFD0FFCCD9BF4111E0
:104F500022C42A842E859727002023A5073E06C653
:104F6000EFC0DFAAFD576319F5009727002093874C
:104F7000673D9C4391C31CC0B240224441018280E2
:104F8000411122C42E848395E50006C6E12A6349B7
:104F900005007C48AA977CC8B24022444101828027
:104FA0005E247D777D17F98F5EA4FDB7DE250111A4
:104FB00022CC26CA4AC84EC606CE93F70710AA844A
:104FC0002E843289B68991C78395E50089460146CA
:104FD00025225E247D777D17F98F5EA48315E4007A
:104FE0006244F240CE864A86B24942492685D2447E
:104FF000056125A8411122C42E848395E50006C6CB
:10500000E528FD575A24631AF500FD77FD17F98F3F
:105010005EA4B2402244410182808567D98F5EA49C
:1050200068C8C5BF8395E50025A8411122C42A841C
:105030002E85B28536869727002023A5073006C621
:10504000EFC03F99FD576319F5009727002093871C
:10505000672F9C4391C31CC0B2402244410182800F
:10506000411122C42A842E859727002023AC072CC7
:1050700006C6EF101026FD576319F500972700208C
:105080009387472C9C4391C31CC0B24022444101EA
:105090008280411122C42A842E85B2859727002060
:1050A00023A2072A06C6EF10D023FD576319F50087
:1050B00097270020938707299C4391C31CC0B240C7
:1050C000224441018280411122C42A842E859727DF
:1050D000002023A9072606C6EF10B021FD5763194B
:1050E000F500972700209387E7259C4391C31CC0B8
:1050F000B240224441018280411122C42A842E857B
:10510000B28536869727002023AE072206C6EF1009
:10511000501FFD576319F5009727002093878722BA
:105120009C4391C31CC0B24022444101828091ED56
:1051300041116C00014501CA795591C61C229CC1E0
:1051400008223335A00041018280014509CA795502
:1051500099C61C229CC108223335A000828082801F
:1051600082808280411122C42A842E85B2853686AF
:105170009727002023A8071C06C6EF109019FD579B
:105180006319F500972700209387C71B9C4391C3A1
:105190001CC0B24022444101828089CD9307F00FA8
:1051A00063F7C7009307A0081CC17D55828090A1BA
:1051B00005458280014582803708100001117D1865
:1051C0003377B80026CA3378D80093D4450113D377
:1051D0004601131E37004EC61357D5010E089357CC
:1051E000D60193F4F47F1373F37F06CE22CC4AC822
:1051F00093D9F50193DEF6013367C701131F35001C
:1052000033E80701931F3600338E64406380D91959
:105210006356C0136304031CB70680009307F07F36
:105220003368D800638FF4369307800363C0C735B3
:10523000FD4763CDC747130500023305C541B3D70A
:10524000CF01B316A8003399AF00DD8E33392001AA
:10525000B357C80133E926011D8F33092F41B337F6
:105260002F013306F7409317860063D407243707CE
:1052700080007D173374E600630C042C2285EFD088
:10528000EF93130785FF93070002998FB357F90037
:105290003316E400D18F3319E9006341972A3305AF
:1052A0009740130615007D47634DC738130700026A
:1052B000118FB356C9003319E9003397E700558FB2
:1052C000333920013369270133D6C70081449377EE
:1052D000790081CF1377F90091476308F70013072E
:1052E0004900333927014A963A899317860063D6D5
:1052F000071C138514009307F07FCE856304F52007
:10530000B70780FFFD17F18F9398D7011359390024
:10531000A607B3E82801B1831375F57F9396C700FC
:105320005205F2406244B182FE05C98ECD8ED24450
:105330004249B2494685B68505618280631E0E0AE0
:10534000138314001373E37F63170322B367E7012A
:10535000B368F801639D041A6387074063860844B5
:105360003309FF41B307074133362F013386C74066
:105370009317860063D6074C3389EF41B307E840A3
:1053800033B62F013386C740F68991B76350C00FFB
:105390006300030CB70680009307F07F3368D800E2
:1053A000638AF43A9307800363CBC713FD4763DF37
:1053B000C73513090EFE93070002B3562801630A8E
:1053C000FE00130900043309C94133192801B3EF62
:1053D0002F013339F0013369D90031A2B367F801E5
:1053E000638A071C9307FEFF638C07389306F07FE0
:1053F0006309DE1A3E8E0DBDB3059340639104220E
:10540000B367E701638707329387F5FF638107443A
:105410009306F07F638CD520BE859307800363CC11
:10542000B72AFD4763CFB73C930700028D8F33192E
:10543000F700B356BF00B317FF003369D900B33785
:10544000F0003357B7003369F9003308E84041AC46
:10545000B367F801638007349307FEFF638A072070
:105460009306F07F6308DE2E3E8E2DBF631E0E1462
:105470009386140093F7E67F63910734B367E701DF
:105480006395042C6380073EB367F801638E073091
:105490003309FF01B3070701333FE9013386E70111
:1054A0009317860063D70700B70780FFFD177D8E2F
:1054B000854493777900E39F07E09317D6019358CB
:1054C0003900B3E8F800935736001307F07F638D77
:1054D000E404B207B18313F5F47FCE8581B5336957
:1054E000F801333920017A99B337E9013386E700AF
:1054F00093178600E3DF07FA85049307F07F63962E
:10550000F418CE851305F07F8147814801BDC1EBBA
:105510006384083A931636009317D8018D82B3E856
:10552000D700F68993573800B3E7F800F9DB8145D7
:105530001305F07FB70708008148CDB3370680FF19
:105540007D167D8E93777900998CE39507D8B5B752
:105550004A85EFC0BFE613078501FD47E3D5E7D2D3
:10556000130685FFB317C900014905BB3369F8016C
:1055700033392001DDB13309FF41330607413334AC
:105580002F01330486409317840063CD0724B3684A
:105590008900E39308CE8147814981441DBFE39888
:1055A00008F80E059317D7010D81B3E8A7009357AC
:1055B00037009DBF0E059317D7010D81B3E8A700F3
:1055C000F2849357370011B7330593406382041276
:1055D000B70680009307F07F558F630DF32E930776
:1055E000800363CBA720FD4763C3A72A930700026C
:1055F000898F3319F700B356AF00B317FF00336933
:10560000D900B337F0003357A7003369F9003A984F
:105610007E99B337F901338607019A84D1BDB70665
:1056200080009307F07F558FE319F3DE9317360060
:105630008D839318D801B3E81701F6899357380082
:10564000E5B5130715FE9306000233D7E700630A9A
:10565000D600930600043386C6403396C7003369EC
:10566000C900333920013369E9000146814491B50D
:105670003309FF01B30707013336E9013E9693175B
:1056800086008544E3D707E28944B70780FFFD170A
:10569000F18F135719001379190033692701939873
:1056A000F70133E9280113D6170015B113090EFECF
:1056B00093070002B3562801630AFE001309000491
:1056C0003309C94133192801B3EF2F013339F001F0
:1056D0003369D90059B63369E70133392001338979
:1056E0002F41B3B72F013306F8409A84F689A5BE3F
:1056F000B367E701638207189307F5FF6384071C0C
:105700009306F07F6304D5123E85D1BD9307000256
:10571000B387C741B316F8003399FF0033D6CF01E2
:10572000D18E33392001B357C80133E926013E97A2
:105730005DBB931736008D839318D801B3E817012A
:10574000AE8493573800F68949B3EDC33369F80145
:10575000E31F09DC0E059317D7010D81B368F5002F
:1057600093573700D1B36381080E93163600931711
:10577000D8018D82B3E8D700F6899357380091BBE2
:105780003309FF41B3070741333F2F013386E74118
:105790008544D1BC0E059317D7010D81B368F50080
:1057A000F2849357370015B30E059317D7010D8177
:1057B000B3E8A7009357370029BB9307F07FE38234
:1057C000F6D43309FF013336E901B3070701B29775
:1057D0009398F7011359190033E9280113D61700DC
:1057E000B684C1B93389EF413307E84033B62F019E
:1057F0003304C740F68949B43369E70133392001DE
:1058000001BD938705FE93060002B357F700638A34
:10581000D50093060004B385B6403317B700336F45
:10582000EF003339E0013369F90055BD93173600B5
:105830008D839318D801B3E8170193573800EDB161
:10584000B368C900E39708C68147814959B13389D4
:10585000EF41B307E84033B62F013386C740F689DE
:10586000854411B4931636009317D8018D82B3E89E
:10587000D70093573800B1B9931636009317D80163
:105880008D82B3E8D700AA84935738003DB99307B7
:1058900005FE93060002B357F700630AD50093068E
:1058A00000043385A6403317A700336FEF00333968
:1058B000E0013369F900A9BB81451305F07FB70703
:1058C0000800A9BC3309FF01B30707013336F9010A
:1058D0003E9675B3931636009317D8018D82B3E8C0
:1058E000D7009357380089B1397193D7450122DC2D
:1058F0004AD856D22A891394C50006DE26DA4ED637
:1059000052D45AD05ECE13F5F77F318093DAF50189
:10591000630B05109307F07F630BF514135AD9013D
:105920000E0433648A00370A8000336A4401131B73
:105930003900930415C00144814B13D846011399D3
:10594000C6001378F87FB2881359C90093D9F601BD
:10595000630E08089307F07F6300F8041357D6011D
:105960000E0933692701130818C0B7078000336791
:10597000F90093183600B38404418145BD4733C80C
:105980003A0163E4871A971700009387E76B0A04CC
:105990003E9410403E9602863367C900938414807B
:1059A000631207101364240081488945C1BF1306A0
:1059B000F07F81470147B207F25062545206B1832B
:1059C0007E08D18FB3E70701D2544259B259225A07
:1059D000925A025BF24B3A85BE8521618280014872
:1059E0001306F07FB70708000147F1B73367C90016
:1059F0004DC7630809304A8532C4EFC03F9C224638
:105A0000130755FFF547930685FF998F3319D90082
:105A1000B357F60033E72701B318D6002695930451
:105A2000353F8145A1BF336A240163030A0636C6A8
:105A300032C46306042A2285EFC05F982246B2462C
:105A4000AA84130755FF754A138B84FF330AEA4073
:105A500033146401335A4901336A8A00331B6901E4
:105A60001305D0C0B30495400144814BF9B5336AA6
:105A7000240163180A002144014B9304F07F894BF1
:105A80006DBD228A4A8B31449304F07F8D4B75B5EE
:105A90001144014B8144854B4DB51364140081487A
:105AA0008545E9BD136434004A878D45C1BD630A4D
:105AB000052E8547898F9306800363DDF632014604
:105AC00081470147CDBDCE868947638DF53A8D4725
:105AD000E387F5F085473688E383F5FE1385F43FC9
